{
  "_format": "hh-sol-artifact-1",
  "contractName": "Predictly",
  "sourceName": "contracts/Predictly.sol",
  "abi": [
    {
      "inputs": [
        {
          "internalType": "address",
          "name": "_token",
          "type": "address"
        },
        {
          "internalType": "address",
          "name": "_priceOracle",
          "type": "address"
        }
      ],
      "stateMutability": "nonpayable",
      "type": "constructor"
    },
    {
      "inputs": [],
      "name": "ReentrancyGuardReentrantCall",
      "type": "error"
    },
    {
      "inputs": [
        {
          "internalType": "address",
          "name": "token",
          "type": "address"
        }
      ],
      "name": "SafeERC20FailedOperation",
      "type": "error"
    },
    {
      "anonymous": false,
      "inputs": [
        {
          "indexed": true,
          "internalType": "uint256",
          "name": "marketId",
          "type": "uint256"
        },
        {
          "indexed": false,
          "internalType": "string",
          "name": "cryptoPairName",
          "type": "string"
        },
        {
          "indexed": false,
          "internalType": "uint256",
          "name": "targetPrice",
          "type": "uint256"
        },
        {
          "indexed": false,
          "internalType": "uint256",
          "name": "bettingDeadline",
          "type": "uint256"
        },
        {
          "indexed": false,
          "internalType": "uint256",
          "name": "resolutionTime",
          "type": "uint256"
        }
      ],
      "name": "MarketCreated",
      "type": "event"
    },
    {
      "anonymous": false,
      "inputs": [
        {
          "indexed": true,
          "internalType": "uint256",
          "name": "marketId",
          "type": "uint256"
        },
        {
          "indexed": false,
          "internalType": "bool",
          "name": "result",
          "type": "bool"
        },
        {
          "indexed": false,
          "internalType": "uint256",
          "name": "finalPrice",
          "type": "uint256"
        }
      ],
      "name": "MarketResolved",
      "type": "event"
    },
    {
      "anonymous": false,
      "inputs": [
        {
          "indexed": true,
          "internalType": "uint256",
          "name": "marketId",
          "type": "uint256"
        },
        {
          "indexed": true,
          "internalType": "address",
          "name": "user",
          "type": "address"
        },
        {
          "indexed": false,
          "internalType": "uint256",
          "name": "amount",
          "type": "uint256"
        }
      ],
      "name": "RewardsClaimed",
      "type": "event"
    },
    {
      "anonymous": false,
      "inputs": [
        {
          "indexed": true,
          "internalType": "uint256",
          "name": "marketId",
          "type": "uint256"
        },
        {
          "indexed": true,
          "internalType": "address",
          "name": "user",
          "type": "address"
        },
        {
          "indexed": false,
          "internalType": "bool",
          "name": "isYes",
          "type": "bool"
        },
        {
          "indexed": false,
          "internalType": "uint256",
          "name": "amount",
          "type": "uint256"
        }
      ],
      "name": "TokensPurchased",
      "type": "event"
    },
    {
      "anonymous": false,
      "inputs": [
        {
          "indexed": true,
          "internalType": "uint256",
          "name": "marketId",
          "type": "uint256"
        },
        {
          "indexed": true,
          "internalType": "address",
          "name": "user",
          "type": "address"
        },
        {
          "indexed": false,
          "internalType": "bool",
          "name": "isYes",
          "type": "bool"
        },
        {
          "indexed": false,
          "internalType": "uint256",
          "name": "amount",
          "type": "uint256"
        }
      ],
      "name": "TokensSold",
      "type": "event"
    },
    {
      "inputs": [],
      "name": "FEE_RATE",
      "outputs": [
        {
          "internalType": "uint256",
          "name": "",
          "type": "uint256"
        }
      ],
      "stateMutability": "view",
      "type": "function"
    },
    {
      "inputs": [
        {
          "internalType": "uint256",
          "name": "_marketId",
          "type": "uint256"
        }
      ],
      "name": "claimRewards",
      "outputs": [],
      "stateMutability": "nonpayable",
      "type": "function"
    },
    {
      "inputs": [
        {
          "internalType": "string",
          "name": "_cryptoPairName",
          "type": "string"
        },
        {
          "internalType": "uint256",
          "name": "_targetPrice",
          "type": "uint256"
        },
        {
          "internalType": "uint256",
          "name": "_bettingDeadline",
          "type": "uint256"
        },
        {
          "internalType": "uint256",
          "name": "_resolutionTime",
          "type": "uint256"
        },
        {
          "internalType": "bytes32",
          "name": "_priceFeedId",
          "type": "bytes32"
        }
      ],
      "name": "createMarket",
      "outputs": [],
      "stateMutability": "nonpayable",
      "type": "function"
    },
    {
      "inputs": [
        {
          "internalType": "uint256",
          "name": "_marketId",
          "type": "uint256"
        }
      ],
      "name": "getMarketInfo",
      "outputs": [
        {
          "internalType": "string",
          "name": "cryptoPairName",
          "type": "string"
        },
        {
          "internalType": "uint256",
          "name": "targetPrice",
          "type": "uint256"
        },
        {
          "internalType": "uint256",
          "name": "bettingDeadline",
          "type": "uint256"
        },
        {
          "internalType": "uint256",
          "name": "resolutionTime",
          "type": "uint256"
        },
        {
          "internalType": "uint256",
          "name": "totalYesTokens",
          "type": "uint256"
        },
        {
          "internalType": "uint256",
          "name": "totalNoTokens",
          "type": "uint256"
        },
        {
          "internalType": "bool",
          "name": "isResolved",
          "type": "bool"
        },
        {
          "internalType": "bool",
          "name": "result",
          "type": "bool"
        }
      ],
      "stateMutability": "view",
      "type": "function"
    },
    {
      "inputs": [
        {
          "internalType": "uint256",
          "name": "_marketId",
          "type": "uint256"
        },
        {
          "internalType": "address",
          "name": "_user",
          "type": "address"
        }
      ],
      "name": "getUserBet",
      "outputs": [
        {
          "internalType": "uint256",
          "name": "yesTokens",
          "type": "uint256"
        },
        {
          "internalType": "uint256",
          "name": "noTokens",
          "type": "uint256"
        }
      ],
      "stateMutability": "view",
      "type": "function"
    },
    {
      "inputs": [],
      "name": "listAllMarkets",
      "outputs": [
        {
          "components": [
            {
              "internalType": "uint256",
              "name": "marketId",
              "type": "uint256"
            },
            {
              "internalType": "string",
              "name": "cryptoPairName",
              "type": "string"
            },
            {
              "internalType": "uint256",
              "name": "targetPrice",
              "type": "uint256"
            },
            {
              "internalType": "uint256",
              "name": "bettingDeadline",
              "type": "uint256"
            },
            {
              "internalType": "uint256",
              "name": "resolutionTime",
              "type": "uint256"
            },
            {
              "internalType": "bytes32",
              "name": "priceFeedId",
              "type": "bytes32"
            },
            {
              "internalType": "uint256",
              "name": "totalYesTokens",
              "type": "uint256"
            },
            {
              "internalType": "uint256",
              "name": "totalNoTokens",
              "type": "uint256"
            },
            {
              "internalType": "bool",
              "name": "isResolved",
              "type": "bool"
            },
            {
              "internalType": "bool",
              "name": "result",
              "type": "bool"
            }
          ],
          "internalType": "struct Predictly.PredictionMarket[]",
          "name": "",
          "type": "tuple[]"
        }
      ],
      "stateMutability": "view",
      "type": "function"
    },
    {
      "inputs": [
        {
          "internalType": "uint256",
          "name": "",
          "type": "uint256"
        }
      ],
      "name": "predictionMarkets",
      "outputs": [
        {
          "internalType": "uint256",
          "name": "marketId",
          "type": "uint256"
        },
        {
          "internalType": "string",
          "name": "cryptoPairName",
          "type": "string"
        },
        {
          "internalType": "uint256",
          "name": "targetPrice",
          "type": "uint256"
        },
        {
          "internalType": "uint256",
          "name": "bettingDeadline",
          "type": "uint256"
        },
        {
          "internalType": "uint256",
          "name": "resolutionTime",
          "type": "uint256"
        },
        {
          "internalType": "bytes32",
          "name": "priceFeedId",
          "type": "bytes32"
        },
        {
          "internalType": "uint256",
          "name": "totalYesTokens",
          "type": "uint256"
        },
        {
          "internalType": "uint256",
          "name": "totalNoTokens",
          "type": "uint256"
        },
        {
          "internalType": "bool",
          "name": "isResolved",
          "type": "bool"
        },
        {
          "internalType": "bool",
          "name": "result",
          "type": "bool"
        }
      ],
      "stateMutability": "view",
      "type": "function"
    },
    {
      "inputs": [],
      "name": "priceOracle",
      "outputs": [
        {
          "internalType": "contract IPyth",
          "name": "",
          "type": "address"
        }
      ],
      "stateMutability": "view",
      "type": "function"
    },
    {
      "inputs": [
        {
          "internalType": "uint256",
          "name": "_marketId",
          "type": "uint256"
        },
        {
          "internalType": "bool",
          "name": "_isYes",
          "type": "bool"
        },
        {
          "internalType": "uint256",
          "name": "_amount",
          "type": "uint256"
        }
      ],
      "name": "purchaseTokens",
      "outputs": [],
      "stateMutability": "nonpayable",
      "type": "function"
    },
    {
      "inputs": [
        {
          "internalType": "uint256",
          "name": "_marketId",
          "type": "uint256"
        },
        {
          "internalType": "bytes[]",
          "name": "_priceUpdateData",
          "type": "bytes[]"
        }
      ],
      "name": "resolveMarket",
      "outputs": [],
      "stateMutability": "payable",
      "type": "function"
    },
    {
      "inputs": [
        {
          "internalType": "uint256",
          "name": "_marketId",
          "type": "uint256"
        },
        {
          "internalType": "bool",
          "name": "_isYes",
          "type": "bool"
        },
        {
          "internalType": "uint256",
          "name": "_amount",
          "type": "uint256"
        }
      ],
      "name": "sellTokens",
      "outputs": [],
      "stateMutability": "nonpayable",
      "type": "function"
    },
    {
      "inputs": [],
      "name": "token",
      "outputs": [
        {
          "internalType": "contract IERC20",
          "name": "",
          "type": "address"
        }
      ],
      "stateMutability": "view",
      "type": "function"
    },
    {
      "inputs": [],
      "name": "totalMarkets",
      "outputs": [
        {
          "internalType": "uint256",
          "name": "",
          "type": "uint256"
        }
      ],
      "stateMutability": "view",
      "type": "function"
    },
    {
      "inputs": [
        {
          "internalType": "uint256",
          "name": "",
          "type": "uint256"
        },
        {
          "internalType": "address",
          "name": "",
          "type": "address"
        }
      ],
      "name": "userBets",
      "outputs": [
        {
          "internalType": "uint256",
          "name": "yesTokens",
          "type": "uint256"
        },
        {
          "internalType": "uint256",
          "name": "noTokens",
          "type": "uint256"
        }
      ],
      "stateMutability": "view",
      "type": "function"
    }
  ],
  "bytecode": "0x60806040523480156200001157600080fd5b506040516200339738038062003397833981810160405281019062000037919062000133565b600160008190555081600160006101000a81548173ffffffffffffffffffffffffffffffffffffffff021916908373ffffffffffffffffffffffffffffffffffffffff16021790555080600260006101000a81548173ffffffffffffffffffffffffffffffffffffffff021916908373ffffffffffffffffffffffffffffffffffffffff16021790555050506200017a565b600080fd5b600073ffffffffffffffffffffffffffffffffffffffff82169050919050565b6000620000fb82620000ce565b9050919050565b6200010d81620000ee565b81146200011957600080fd5b50565b6000815190506200012d8162000102565b92915050565b600080604083850312156200014d576200014c620000c9565b5b60006200015d858286016200011c565b925050602062000170858286016200011c565b9150509250929050565b61320d806200018a6000396000f3fe6080604052600436106100dd5760003560e01c8063867fbf5f1161007f578063d2ca0a5811610059578063d2ca0a58146102d7578063de2bafe114610302578063df1da7901461032b578063fc0c546a14610354576100dd565b8063867fbf5f1461023757806392a8db3f1461027d578063c03fb87c14610299576100dd565b80632d11c58a116100bb5780632d11c58a1461015f5780633ec791931461018a5780637d06a8e1146101ce5780638162486b1461020c576100dd565b80630962ef79146100e25780632630c12f1461010b5780632ae3b49f14610136575b600080fd5b3480156100ee57600080fd5b50610109600480360381019061010491906118c0565b61037f565b005b34801561011757600080fd5b506101206105cb565b60405161012d919061196c565b60405180910390f35b34801561014257600080fd5b5061015d60048036038101906101589190611b03565b6105f1565b005b34801561016b57600080fd5b5061017461081d565b6040516101819190611ba9565b60405180910390f35b34801561019657600080fd5b506101b160048036038101906101ac91906118c0565b610822565b6040516101c5989796959493929190611c5e565b60405180910390f35b3480156101da57600080fd5b506101f560048036038101906101f09190611d21565b61092e565b604051610203929190611d61565b60405180910390f35b34801561021857600080fd5b5061022161095f565b60405161022e9190611ba9565b60405180910390f35b34801561024357600080fd5b5061025e600480360381019061025991906118c0565b610965565b6040516102749a99989796959493929190611d99565b60405180910390f35b61029760048036038101906102929190611e9c565b610a5b565b005b3480156102a557600080fd5b506102c060048036038101906102bb9190611d21565b610de4565b6040516102ce929190611d61565b60405180910390f35b3480156102e357600080fd5b506102ec610e51565b6040516102f9919061210f565b60405180910390f35b34801561030e57600080fd5b506103296004803603810190610324919061215d565b61102f565b005b34801561033757600080fd5b50610352600480360381019061034d919061215d565b6112d3565b005b34801561036057600080fd5b50610369611603565b60405161037691906121d1565b60405180910390f35b610387611629565b60006004600083815260200190815260200160002090508060080160009054906101000a900460ff166103ef576040517f08c379a00000000000000000000000000000000000000000000000000000000081526004016103e690612238565b60405180910390fd5b60006005600084815260200190815260200160002060003373ffffffffffffffffffffffffffffffffffffffff1673ffffffffffffffffffffffffffffffffffffffff168152602001908152602001600020905060008260080160019054906101000a900460ff1615610495578260060154836007015484600601546104759190612287565b836000015461048491906122bb565b61048e919061232c565b90506104ca565b8260070154836007015484600601546104ae9190612287565b83600101546104bd91906122bb565b6104c7919061232c565b90505b6000811161050d576040517f08c379a0000000000000000000000000000000000000000000000000000000008152600401610504906123a9565b60405180910390fd5b600082600001819055506000826001018190555061056e3382600160009054906101000a900473ffffffffffffffffffffffffffffffffffffffff1673ffffffffffffffffffffffffffffffffffffffff1661166f9092919063ffffffff16565b3373ffffffffffffffffffffffffffffffffffffffff16847f3300bdb359cfb956935bca32e9db727413eab1ca84341f2e36caea85bb796968836040516105b59190611ba9565b60405180910390a35050506105c86116ee565b50565b600260009054906101000a900473ffffffffffffffffffffffffffffffffffffffff1681565b428311610633576040517f08c379a000000000000000000000000000000000000000000000000000000000815260040161062a9061243b565b60405180910390fd5b828211610675576040517f08c379a000000000000000000000000000000000000000000000000000000000815260040161066c906124cd565b60405180910390fd5b600084116106b8576040517f08c379a00000000000000000000000000000000000000000000000000000000081526004016106af9061255f565b60405180910390fd5b600360008154809291906106cb9061257f565b9190505550604051806101400160405280600354815260200186815260200185815260200184815260200183815260200182815260200160008152602001600081526020016000151581526020016000151581525060046000600354815260200190815260200160002060008201518160000155602082015181600101908161075491906127c9565b5060408201518160020155606082015181600301556080820151816004015560a0820151816005015560c0820151816006015560e082015181600701556101008201518160080160006101000a81548160ff0219169083151502179055506101208201518160080160016101000a81548160ff0219169083151502179055509050506003547f76e4f7547f65d724459a9d5e9c22f475d043d441fe6b65bb4b4f007e5902e5f98686868660405161080e949392919061289b565b60405180910390a25050505050565b600181565b6060600080600080600080600080600460008b8152602001908152602001600020905080600101816002015482600301548360040154846006015485600701548660080160009054906101000a900460ff168760080160019054906101000a900460ff16878054610892906125f6565b80601f01602080910402602001604051908101604052809291908181526020018280546108be906125f6565b801561090b5780601f106108e05761010080835404028352916020019161090b565b820191906000526020600020905b8154815290600101906020018083116108ee57829003601f168201915b505050505097509850985098509850985098509850985050919395975091939597565b6005602052816000526040600020602052806000526040600020600091509150508060000154908060010154905082565b60035481565b600460205280600052604060002060009150905080600001549080600101805461098e906125f6565b80601f01602080910402602001604051908101604052809291908181526020018280546109ba906125f6565b8015610a075780601f106109dc57610100808354040283529160200191610a07565b820191906000526020600020905b8154815290600101906020018083116109ea57829003601f168201915b5050505050908060020154908060030154908060040154908060050154908060060154908060070154908060080160009054906101000a900460ff16908060080160019054906101000a900460ff1690508a565b60006004600085815260200190815260200160002090508060040154421015610ab9576040517f08c379a0000000000000000000000000000000000000000000000000000000008152600401610ab090612933565b60405180910390fd5b8060080160009054906101000a900460ff1615610b0b576040517f08c379a0000000000000000000000000000000000000000000000000000000008152600401610b029061299f565b60405180910390fd5b6000600260009054906101000a900473ffffffffffffffffffffffffffffffffffffffff1673ffffffffffffffffffffffffffffffffffffffff1663d47eed4585856040518363ffffffff1660e01b8152600401610b6a929190612b23565b602060405180830381865afa158015610b87573d6000803e3d6000fd5b505050506040513d601f19601f82011682018060405250810190610bab9190612b5c565b9050600260009054906101000a900473ffffffffffffffffffffffffffffffffffffffff1673ffffffffffffffffffffffffffffffffffffffff1663ef9e5e288286866040518463ffffffff1660e01b8152600401610c0b929190612b23565b6000604051808303818588803b158015610c2457600080fd5b505af1158015610c38573d6000803e3d6000fd5b50505050506000600260009054906101000a900473ffffffffffffffffffffffffffffffffffffffff1673ffffffffffffffffffffffffffffffffffffffff1663a4ae35e08460050154603c6040518363ffffffff1660e01b8152600401610ca1929190612bc4565b608060405180830381865afa158015610cbe573d6000803e3d6000fd5b505050506040513d601f19601f82011682018060405250810190610ce29190612d1c565b9050600081604001517fffffffffffffffffffffffffffffffffffffffffffffffffffffffffffffffff610d169190612d49565b600a610d229190612ec6565b670de0b6b3a7640000836000015167ffffffffffffffff16610d4491906122bb565b610d4e919061232c565b905083600201548110158460080160016101000a81548160ff02191690831515021790555060018460080160006101000a81548160ff021916908315150217905550867f6d4d544f5a6dcf38d77a232d3ef7358625c74877a1ad954fcb507872e7a05eaf8560080160019054906101000a900460ff1683604051610dd3929190612f11565b60405180910390a250505050505050565b60008060006005600086815260200190815260200160002060008573ffffffffffffffffffffffffffffffffffffffff1673ffffffffffffffffffffffffffffffffffffffff16815260200190815260200160002090508060000154816001015492509250509250929050565b6060600060035467ffffffffffffffff811115610e7157610e706119a2565b5b604051908082528060200260200182016040528015610eaa57816020015b610e9761181c565b815260200190600190039081610e8f5790505b5090506000600190505b600354811161102757600460008281526020019081526020016000206040518061014001604052908160008201548152602001600182018054610ef6906125f6565b80601f0160208091040260200160405190810160405280929190818152602001828054610f22906125f6565b8015610f6f5780601f10610f4457610100808354040283529160200191610f6f565b820191906000526020600020905b815481529060010190602001808311610f5257829003601f168201915b505050505081526020016002820154815260200160038201548152602001600482015481526020016005820154815260200160068201548152602001600782015481526020016008820160009054906101000a900460ff161515151581526020016008820160019054906101000a900460ff16151515158152505082600183610ff89190612f3a565b8151811061100957611008612f6e565b5b6020026020010181905250808061101f9061257f565b915050610eb4565b508091505090565b611037611629565b600060046000858152602001908152602001600020905080600301544210611094576040517f08c379a000000000000000000000000000000000000000000000000000000000815260040161108b90612fe9565b60405180910390fd5b8060080160009054906101000a900460ff16156110e6576040517f08c379a00000000000000000000000000000000000000000000000000000000081526004016110dd9061299f565b60405180910390fd5b60008211611129576040517f08c379a000000000000000000000000000000000000000000000000000000000815260040161112090613055565b60405180910390fd5b6000606460018461113a91906122bb565b611144919061232c565b9050600081846111549190612f3a565b90506111a5333086600160009054906101000a900473ffffffffffffffffffffffffffffffffffffffff1673ffffffffffffffffffffffffffffffffffffffff166116f8909392919063ffffffff16565b60006005600088815260200190815260200160002060003373ffffffffffffffffffffffffffffffffffffffff1673ffffffffffffffffffffffffffffffffffffffff1681526020019081526020016000209050851561123a57818460060160008282546112139190612287565b925050819055508181600001600082825461122e9190612287565b92505081905550611271565b8184600701600082825461124e9190612287565b92505081905550818160010160008282546112699190612287565b925050819055505b3373ffffffffffffffffffffffffffffffffffffffff16877f41227b769ee0a4211cc4bedd7bcc4e075b16c9e4f250ccaf913f21335d910a9a88856040516112ba929190612f11565b60405180910390a3505050506112ce6116ee565b505050565b6112db611629565b600060046000858152602001908152602001600020905080600301544210611338576040517f08c379a000000000000000000000000000000000000000000000000000000000815260040161132f90612fe9565b60405180910390fd5b8060080160009054906101000a900460ff161561138a576040517f08c379a00000000000000000000000000000000000000000000000000000000081526004016113819061299f565b60405180910390fd5b600082116113cd576040517f08c379a00000000000000000000000000000000000000000000000000000000081526004016113c490613055565b60405180910390fd5b60006005600086815260200190815260200160002060003373ffffffffffffffffffffffffffffffffffffffff1673ffffffffffffffffffffffffffffffffffffffff168152602001908152602001600020905083156114a957828160000154101561146e576040517f08c379a0000000000000000000000000000000000000000000000000000000008152600401611465906130c1565b60405180910390fd5b828260060160008282546114829190612f3a565b925050819055508281600001600082825461149d9190612f3a565b92505081905550611527565b82816001015410156114f0576040517f08c379a00000000000000000000000000000000000000000000000000000000081526004016114e79061312d565b60405180910390fd5b828260070160008282546115049190612f3a565b925050819055508281600101600082825461151f9190612f3a565b925050819055505b6000606460018561153891906122bb565b611542919061232c565b9050600081856115529190612f3a565b90506115a13382600160009054906101000a900473ffffffffffffffffffffffffffffffffffffffff1673ffffffffffffffffffffffffffffffffffffffff1661166f9092919063ffffffff16565b3373ffffffffffffffffffffffffffffffffffffffff16877f9e654539a77d3295483a677608ae9fe60c8350fd80fd544acd4e90cbcf3ab2bb88886040516115ea929190612f11565b60405180910390a3505050506115fe6116ee565b505050565b600160009054906101000a900473ffffffffffffffffffffffffffffffffffffffff1681565b600260005403611665576040517f3ee5aeb500000000000000000000000000000000000000000000000000000000815260040160405180910390fd5b6002600081905550565b6116e9838473ffffffffffffffffffffffffffffffffffffffff1663a9059cbb85856040516024016116a292919061315c565b604051602081830303815290604052915060e01b6020820180517bffffffffffffffffffffffffffffffffffffffffffffffffffffffff838183161783525050505061177a565b505050565b6001600081905550565b611774848573ffffffffffffffffffffffffffffffffffffffff166323b872dd86868660405160240161172d93929190613185565b604051602081830303815290604052915060e01b6020820180517bffffffffffffffffffffffffffffffffffffffffffffffffffffffff838183161783525050505061177a565b50505050565b600080602060008451602086016000885af18061179d576040513d6000823e3d81fd5b3d9250600051915050600082146117b85760018114156117d4565b60008473ffffffffffffffffffffffffffffffffffffffff163b145b1561181657836040517f5274afe700000000000000000000000000000000000000000000000000000000815260040161180d91906131bc565b60405180910390fd5b50505050565b60405180610140016040528060008152602001606081526020016000815260200160008152602001600081526020016000801916815260200160008152602001600081526020016000151581526020016000151581525090565b6000604051905090565b600080fd5b600080fd5b6000819050919050565b61189d8161188a565b81146118a857600080fd5b50565b6000813590506118ba81611894565b92915050565b6000602082840312156118d6576118d5611880565b5b60006118e4848285016118ab565b91505092915050565b600073ffffffffffffffffffffffffffffffffffffffff82169050919050565b6000819050919050565b600061193261192d611928846118ed565b61190d565b6118ed565b9050919050565b600061194482611917565b9050919050565b600061195682611939565b9050919050565b6119668161194b565b82525050565b6000602082019050611981600083018461195d565b92915050565b600080fd5b600080fd5b6000601f19601f8301169050919050565b7f4e487b7100000000000000000000000000000000000000000000000000000000600052604160045260246000fd5b6119da82611991565b810181811067ffffffffffffffff821117156119f9576119f86119a2565b5b80604052505050565b6000611a0c611876565b9050611a1882826119d1565b919050565b600067ffffffffffffffff821115611a3857611a376119a2565b5b611a4182611991565b9050602081019050919050565b82818337600083830152505050565b6000611a70611a6b84611a1d565b611a02565b905082815260208101848484011115611a8c57611a8b61198c565b5b611a97848285611a4e565b509392505050565b600082601f830112611ab457611ab3611987565b5b8135611ac4848260208601611a5d565b91505092915050565b6000819050919050565b611ae081611acd565b8114611aeb57600080fd5b50565b600081359050611afd81611ad7565b92915050565b600080600080600060a08688031215611b1f57611b1e611880565b5b600086013567ffffffffffffffff811115611b3d57611b3c611885565b5b611b4988828901611a9f565b9550506020611b5a888289016118ab565b9450506040611b6b888289016118ab565b9350506060611b7c888289016118ab565b9250506080611b8d88828901611aee565b9150509295509295909350565b611ba38161188a565b82525050565b6000602082019050611bbe6000830184611b9a565b92915050565b600081519050919050565b600082825260208201905092915050565b60005b83811015611bfe578082015181840152602081019050611be3565b60008484015250505050565b6000611c1582611bc4565b611c1f8185611bcf565b9350611c2f818560208601611be0565b611c3881611991565b840191505092915050565b60008115159050919050565b611c5881611c43565b82525050565b6000610100820190508181036000830152611c79818b611c0a565b9050611c88602083018a611b9a565b611c956040830189611b9a565b611ca26060830188611b9a565b611caf6080830187611b9a565b611cbc60a0830186611b9a565b611cc960c0830185611c4f565b611cd660e0830184611c4f565b9998505050505050505050565b6000611cee826118ed565b9050919050565b611cfe81611ce3565b8114611d0957600080fd5b50565b600081359050611d1b81611cf5565b92915050565b60008060408385031215611d3857611d37611880565b5b6000611d46858286016118ab565b9250506020611d5785828601611d0c565b9150509250929050565b6000604082019050611d766000830185611b9a565b611d836020830184611b9a565b9392505050565b611d9381611acd565b82525050565b600061014082019050611daf600083018d611b9a565b8181036020830152611dc1818c611c0a565b9050611dd0604083018b611b9a565b611ddd606083018a611b9a565b611dea6080830189611b9a565b611df760a0830188611d8a565b611e0460c0830187611b9a565b611e1160e0830186611b9a565b611e1f610100830185611c4f565b611e2d610120830184611c4f565b9b9a5050505050505050505050565b600080fd5b600080fd5b60008083601f840112611e5c57611e5b611987565b5b8235905067ffffffffffffffff811115611e7957611e78611e3c565b5b602083019150836020820283011115611e9557611e94611e41565b5b9250929050565b600080600060408486031215611eb557611eb4611880565b5b6000611ec3868287016118ab565b935050602084013567ffffffffffffffff811115611ee457611ee3611885565b5b611ef086828701611e46565b92509250509250925092565b600081519050919050565b600082825260208201905092915050565b6000819050602082019050919050565b611f318161188a565b82525050565b600082825260208201905092915050565b6000611f5382611bc4565b611f5d8185611f37565b9350611f6d818560208601611be0565b611f7681611991565b840191505092915050565b611f8a81611acd565b82525050565b611f9981611c43565b82525050565b600061014083016000830151611fb86000860182611f28565b5060208301518482036020860152611fd08282611f48565b9150506040830151611fe56040860182611f28565b506060830151611ff86060860182611f28565b50608083015161200b6080860182611f28565b5060a083015161201e60a0860182611f81565b5060c083015161203160c0860182611f28565b5060e083015161204460e0860182611f28565b50610100830151612059610100860182611f90565b5061012083015161206e610120860182611f90565b508091505092915050565b60006120858383611f9f565b905092915050565b6000602082019050919050565b60006120a582611efc565b6120af8185611f07565b9350836020820285016120c185611f18565b8060005b858110156120fd57848403895281516120de8582612079565b94506120e98361208d565b925060208a019950506001810190506120c5565b50829750879550505050505092915050565b60006020820190508181036000830152612129818461209a565b905092915050565b61213a81611c43565b811461214557600080fd5b50565b60008135905061215781612131565b92915050565b60008060006060848603121561217657612175611880565b5b6000612184868287016118ab565b935050602061219586828701612148565b92505060406121a6868287016118ab565b9150509250925092565b60006121bb82611939565b9050919050565b6121cb816121b0565b82525050565b60006020820190506121e660008301846121c2565b92915050565b7f4d61726b6574206e6f74207265736f6c76656420796574000000000000000000600082015250565b6000612222601783611bcf565b915061222d826121ec565b602082019050919050565b6000602082019050818103600083015261225181612215565b9050919050565b7f4e487b7100000000000000000000000000000000000000000000000000000000600052601160045260246000fd5b60006122928261188a565b915061229d8361188a565b92508282019050808211156122b5576122b4612258565b5b92915050565b60006122c68261188a565b91506122d18361188a565b92508282026122df8161188a565b915082820484148315176122f6576122f5612258565b5b5092915050565b7f4e487b7100000000000000000000000000000000000000000000000000000000600052601260045260246000fd5b60006123378261188a565b91506123428361188a565b925082612352576123516122fd565b5b828204905092915050565b7f4e6f207265776172647320746f20636c61696d00000000000000000000000000600082015250565b6000612393601383611bcf565b915061239e8261235d565b602082019050919050565b600060208201905081810360008301526123c281612386565b9050919050565b7f42657474696e6720646561646c696e65206d75737420626520696e207468652060008201527f6675747572650000000000000000000000000000000000000000000000000000602082015250565b6000612425602683611bcf565b9150612430826123c9565b604082019050919050565b6000602082019050818103600083015261245481612418565b9050919050565b7f5265736f6c7574696f6e2074696d65206d75737420626520616674657220626560008201527f7474696e6720646561646c696e65000000000000000000000000000000000000602082015250565b60006124b7602e83611bcf565b91506124c28261245b565b604082019050919050565b600060208201905081810360008301526124e6816124aa565b9050919050565b7f546172676574207072696365206d75737420626520677265617465722074686160008201527f6e20300000000000000000000000000000000000000000000000000000000000602082015250565b6000612549602383611bcf565b9150612554826124ed565b604082019050919050565b600060208201905081810360008301526125788161253c565b9050919050565b600061258a8261188a565b91507fffffffffffffffffffffffffffffffffffffffffffffffffffffffffffffffff82036125bc576125bb612258565b5b600182019050919050565b7f4e487b7100000000000000000000000000000000000000000000000000000000600052602260045260246000fd5b6000600282049050600182168061260e57607f821691505b602082108103612621576126206125c7565b5b50919050565b60008190508160005260206000209050919050565b60006020601f8301049050919050565b600082821b905092915050565b6000600883026126897fffffffffffffffffffffffffffffffffffffffffffffffffffffffffffffffff8261264c565b612693868361264c565b95508019841693508086168417925050509392505050565b60006126c66126c16126bc8461188a565b61190d565b61188a565b9050919050565b6000819050919050565b6126e0836126ab565b6126f46126ec826126cd565b848454612659565b825550505050565b600090565b6127096126fc565b6127148184846126d7565b505050565b5b818110156127385761272d600082612701565b60018101905061271a565b5050565b601f82111561277d5761274e81612627565b6127578461263c565b81016020851015612766578190505b61277a6127728561263c565b830182612719565b50505b505050565b600082821c905092915050565b60006127a060001984600802612782565b1980831691505092915050565b60006127b9838361278f565b9150826002028217905092915050565b6127d282611bc4565b67ffffffffffffffff8111156127eb576127ea6119a2565b5b6127f582546125f6565b61280082828561273c565b600060209050601f8311600181146128335760008415612821578287015190505b61282b85826127ad565b865550612893565b601f19841661284186612627565b60005b8281101561286957848901518255600182019150602085019450602081019050612844565b868310156128865784890151612882601f89168261278f565b8355505b6001600288020188555050505b505050505050565b600060808201905081810360008301526128b58187611c0a565b90506128c46020830186611b9a565b6128d16040830185611b9a565b6128de6060830184611b9a565b95945050505050565b7f546f6f206561726c7920746f207265736f6c7665000000000000000000000000600082015250565b600061291d601483611bcf565b9150612928826128e7565b602082019050919050565b6000602082019050818103600083015261294c81612910565b9050919050565b7f4d61726b657420616c7265616479207265736f6c766564000000000000000000600082015250565b6000612989601783611bcf565b915061299482612953565b602082019050919050565b600060208201905081810360008301526129b88161297c565b9050919050565b600082825260208201905092915050565b6000819050919050565b600082825260208201905092915050565b60006129f783856129da565b9350612a04838584611a4e565b612a0d83611991565b840190509392505050565b6000612a258484846129eb565b90509392505050565b600080fd5b600080fd5b600080fd5b60008083356001602003843603038112612a5a57612a59612a38565b5b83810192508235915060208301925067ffffffffffffffff821115612a8257612a81612a2e565b5b600182023603831315612a9857612a97612a33565b5b509250929050565b6000602082019050919050565b6000612ab983856129bf565b935083602084028501612acb846129d0565b8060005b87811015612b11578484038952612ae68284612a3d565b612af1868284612a18565b9550612afc84612aa0565b935060208b019a505050600181019050612acf565b50829750879450505050509392505050565b60006020820190508181036000830152612b3e818486612aad565b90509392505050565b600081519050612b5681611894565b92915050565b600060208284031215612b7257612b71611880565b5b6000612b8084828501612b47565b91505092915050565b6000819050919050565b6000612bae612ba9612ba484612b89565b61190d565b61188a565b9050919050565b612bbe81612b93565b82525050565b6000604082019050612bd96000830185611d8a565b612be66020830184612bb5565b9392505050565b600080fd5b60008160070b9050919050565b612c0881612bf2565b8114612c1357600080fd5b50565b600081519050612c2581612bff565b92915050565b600067ffffffffffffffff82169050919050565b612c4881612c2b565b8114612c5357600080fd5b50565b600081519050612c6581612c3f565b92915050565b60008160030b9050919050565b612c8181612c6b565b8114612c8c57600080fd5b50565b600081519050612c9e81612c78565b92915050565b600060808284031215612cba57612cb9612bed565b5b612cc46080611a02565b90506000612cd484828501612c16565b6000830152506020612ce884828501612c56565b6020830152506040612cfc84828501612c8f565b6040830152506060612d1084828501612b47565b60608301525092915050565b600060808284031215612d3257612d31611880565b5b6000612d4084828501612ca4565b91505092915050565b6000612d5482612c6b565b9150612d5f83612c6b565b9250828202612d6d81612c6b565b9150808214612d7f57612d7e612258565b5b5092915050565b60008160011c9050919050565b6000808291508390505b6001851115612ddd57808604811115612db957612db8612258565b5b6001851615612dc85780820291505b8081029050612dd685612d86565b9450612d9d565b94509492505050565b600082612df65760019050612eb2565b81612e045760009050612eb2565b8160018114612e1a5760028114612e2457612e53565b6001915050612eb2565b60ff841115612e3657612e35612258565b5b8360020a915084821115612e4d57612e4c612258565b5b50612eb2565b5060208310610133831016604e8410600b8410161715612e885782820a905083811115612e8357612e82612258565b5b612eb2565b612e958484846001612d93565b92509050818404811115612eac57612eab612258565b5b81810290505b9392505050565b600060ff82169050919050565b6000612ed18261188a565b9150612edc83612eb9565b9250612f097fffffffffffffffffffffffffffffffffffffffffffffffffffffffffffffffff8484612de6565b905092915050565b6000604082019050612f266000830185611c4f565b612f336020830184611b9a565b9392505050565b6000612f458261188a565b9150612f508361188a565b9250828203905081811115612f6857612f67612258565b5b92915050565b7f4e487b7100000000000000000000000000000000000000000000000000000000600052603260045260246000fd5b7f42657474696e6720706572696f642068617320656e6465640000000000000000600082015250565b6000612fd3601883611bcf565b9150612fde82612f9d565b602082019050919050565b6000602082019050818103600083015261300281612fc6565b9050919050565b7f416d6f756e74206d7573742062652067726561746572207468616e2030000000600082015250565b600061303f601d83611bcf565b915061304a82613009565b602082019050919050565b6000602082019050818103600083015261306e81613032565b9050919050565b7f496e73756666696369656e742059657320746f6b656e73000000000000000000600082015250565b60006130ab601783611bcf565b91506130b682613075565b602082019050919050565b600060208201905081810360008301526130da8161309e565b9050919050565b7f496e73756666696369656e74204e6f20746f6b656e7300000000000000000000600082015250565b6000613117601683611bcf565b9150613122826130e1565b602082019050919050565b600060208201905081810360008301526131468161310a565b9050919050565b61315681611ce3565b82525050565b6000604082019050613171600083018561314d565b61317e6020830184611b9a565b9392505050565b600060608201905061319a600083018661314d565b6131a7602083018561314d565b6131b46040830184611b9a565b949350505050565b60006020820190506131d1600083018461314d565b9291505056fea2646970667358221220ad6fc8292730815d89f98555f1c975cd786cc1c46f2062e5d164a1f36dff16be64736f6c63430008180033",
  "linkReferences": {},
  "deployedLinkReferences": {}
}