{
  "contracts/Predictly.sol": {
    "Predictly": {
      "abi": [
        {
          "inputs": [
            {
              "internalType": "address",
              "name": "_token",
              "type": "address"
            },
            {
              "internalType": "address",
              "name": "_priceOracle",
              "type": "address"
            }
          ],
          "stateMutability": "nonpayable",
          "type": "constructor"
        },
        {
          "inputs": [],
          "name": "ReentrancyGuardReentrantCall",
          "type": "error"
        },
        {
          "inputs": [
            {
              "internalType": "address",
              "name": "token",
              "type": "address"
            }
          ],
          "name": "SafeERC20FailedOperation",
          "type": "error"
        },
        {
          "anonymous": false,
          "inputs": [
            {
              "indexed": true,
              "internalType": "uint256",
              "name": "marketId",
              "type": "uint256"
            },
            {
              "indexed": false,
              "internalType": "string",
              "name": "cryptoPairName",
              "type": "string"
            },
            {
              "indexed": false,
              "internalType": "uint256",
              "name": "targetPrice",
              "type": "uint256"
            },
            {
              "indexed": false,
              "internalType": "uint256",
              "name": "bettingDeadline",
              "type": "uint256"
            },
            {
              "indexed": false,
              "internalType": "uint256",
              "name": "resolutionTime",
              "type": "uint256"
            }
          ],
          "name": "MarketCreated",
          "type": "event"
        },
        {
          "anonymous": false,
          "inputs": [
            {
              "indexed": true,
              "internalType": "uint256",
              "name": "marketId",
              "type": "uint256"
            },
            {
              "indexed": false,
              "internalType": "bool",
              "name": "result",
              "type": "bool"
            },
            {
              "indexed": false,
              "internalType": "uint256",
              "name": "finalPrice",
              "type": "uint256"
            }
          ],
          "name": "MarketResolved",
          "type": "event"
        },
        {
          "anonymous": false,
          "inputs": [
            {
              "indexed": true,
              "internalType": "uint256",
              "name": "marketId",
              "type": "uint256"
            },
            {
              "indexed": true,
              "internalType": "address",
              "name": "user",
              "type": "address"
            },
            {
              "indexed": false,
              "internalType": "uint256",
              "name": "amount",
              "type": "uint256"
            }
          ],
          "name": "RewardsClaimed",
          "type": "event"
        },
        {
          "anonymous": false,
          "inputs": [
            {
              "indexed": true,
              "internalType": "uint256",
              "name": "marketId",
              "type": "uint256"
            },
            {
              "indexed": true,
              "internalType": "address",
              "name": "user",
              "type": "address"
            },
            {
              "indexed": false,
              "internalType": "bool",
              "name": "isYes",
              "type": "bool"
            },
            {
              "indexed": false,
              "internalType": "uint256",
              "name": "amount",
              "type": "uint256"
            }
          ],
          "name": "TokensPurchased",
          "type": "event"
        },
        {
          "anonymous": false,
          "inputs": [
            {
              "indexed": true,
              "internalType": "uint256",
              "name": "marketId",
              "type": "uint256"
            },
            {
              "indexed": true,
              "internalType": "address",
              "name": "user",
              "type": "address"
            },
            {
              "indexed": false,
              "internalType": "bool",
              "name": "isYes",
              "type": "bool"
            },
            {
              "indexed": false,
              "internalType": "uint256",
              "name": "amount",
              "type": "uint256"
            }
          ],
          "name": "TokensSold",
          "type": "event"
        },
        {
          "inputs": [],
          "name": "FEE_RATE",
          "outputs": [
            {
              "internalType": "uint256",
              "name": "",
              "type": "uint256"
            }
          ],
          "stateMutability": "view",
          "type": "function"
        },
        {
          "inputs": [
            {
              "internalType": "uint256",
              "name": "_marketId",
              "type": "uint256"
            }
          ],
          "name": "claimRewards",
          "outputs": [],
          "stateMutability": "nonpayable",
          "type": "function"
        },
        {
          "inputs": [
            {
              "internalType": "string",
              "name": "_cryptoPairName",
              "type": "string"
            },
            {
              "internalType": "uint256",
              "name": "_targetPrice",
              "type": "uint256"
            },
            {
              "internalType": "uint256",
              "name": "_bettingDeadline",
              "type": "uint256"
            },
            {
              "internalType": "uint256",
              "name": "_resolutionTime",
              "type": "uint256"
            },
            {
              "internalType": "bytes32",
              "name": "_priceFeedId",
              "type": "bytes32"
            }
          ],
          "name": "createMarket",
          "outputs": [],
          "stateMutability": "nonpayable",
          "type": "function"
        },
        {
          "inputs": [
            {
              "internalType": "uint256",
              "name": "_marketId",
              "type": "uint256"
            }
          ],
          "name": "getMarketInfo",
          "outputs": [
            {
              "internalType": "string",
              "name": "cryptoPairName",
              "type": "string"
            },
            {
              "internalType": "uint256",
              "name": "targetPrice",
              "type": "uint256"
            },
            {
              "internalType": "uint256",
              "name": "bettingDeadline",
              "type": "uint256"
            },
            {
              "internalType": "uint256",
              "name": "resolutionTime",
              "type": "uint256"
            },
            {
              "internalType": "uint256",
              "name": "totalYesTokens",
              "type": "uint256"
            },
            {
              "internalType": "uint256",
              "name": "totalNoTokens",
              "type": "uint256"
            },
            {
              "internalType": "bool",
              "name": "isResolved",
              "type": "bool"
            },
            {
              "internalType": "bool",
              "name": "result",
              "type": "bool"
            }
          ],
          "stateMutability": "view",
          "type": "function"
        },
        {
          "inputs": [
            {
              "internalType": "uint256",
              "name": "_marketId",
              "type": "uint256"
            },
            {
              "internalType": "address",
              "name": "_user",
              "type": "address"
            }
          ],
          "name": "getUserBet",
          "outputs": [
            {
              "internalType": "uint256",
              "name": "yesTokens",
              "type": "uint256"
            },
            {
              "internalType": "uint256",
              "name": "noTokens",
              "type": "uint256"
            }
          ],
          "stateMutability": "view",
          "type": "function"
        },
        {
          "inputs": [],
          "name": "listAllMarkets",
          "outputs": [
            {
              "components": [
                {
                  "internalType": "uint256",
                  "name": "marketId",
                  "type": "uint256"
                },
                {
                  "internalType": "string",
                  "name": "cryptoPairName",
                  "type": "string"
                },
                {
                  "internalType": "uint256",
                  "name": "targetPrice",
                  "type": "uint256"
                },
                {
                  "internalType": "uint256",
                  "name": "bettingDeadline",
                  "type": "uint256"
                },
                {
                  "internalType": "uint256",
                  "name": "resolutionTime",
                  "type": "uint256"
                },
                {
                  "internalType": "bytes32",
                  "name": "priceFeedId",
                  "type": "bytes32"
                },
                {
                  "internalType": "uint256",
                  "name": "totalYesTokens",
                  "type": "uint256"
                },
                {
                  "internalType": "uint256",
                  "name": "totalNoTokens",
                  "type": "uint256"
                },
                {
                  "internalType": "bool",
                  "name": "isResolved",
                  "type": "bool"
                },
                {
                  "internalType": "bool",
                  "name": "result",
                  "type": "bool"
                }
              ],
              "internalType": "struct Predictly.PredictionMarket[]",
              "name": "",
              "type": "tuple[]"
            }
          ],
          "stateMutability": "view",
          "type": "function"
        },
        {
          "inputs": [
            {
              "internalType": "uint256",
              "name": "",
              "type": "uint256"
            }
          ],
          "name": "predictionMarkets",
          "outputs": [
            {
              "internalType": "uint256",
              "name": "marketId",
              "type": "uint256"
            },
            {
              "internalType": "string",
              "name": "cryptoPairName",
              "type": "string"
            },
            {
              "internalType": "uint256",
              "name": "targetPrice",
              "type": "uint256"
            },
            {
              "internalType": "uint256",
              "name": "bettingDeadline",
              "type": "uint256"
            },
            {
              "internalType": "uint256",
              "name": "resolutionTime",
              "type": "uint256"
            },
            {
              "internalType": "bytes32",
              "name": "priceFeedId",
              "type": "bytes32"
            },
            {
              "internalType": "uint256",
              "name": "totalYesTokens",
              "type": "uint256"
            },
            {
              "internalType": "uint256",
              "name": "totalNoTokens",
              "type": "uint256"
            },
            {
              "internalType": "bool",
              "name": "isResolved",
              "type": "bool"
            },
            {
              "internalType": "bool",
              "name": "result",
              "type": "bool"
            }
          ],
          "stateMutability": "view",
          "type": "function"
        },
        {
          "inputs": [],
          "name": "priceOracle",
          "outputs": [
            {
              "internalType": "contract IPyth",
              "name": "",
              "type": "address"
            }
          ],
          "stateMutability": "view",
          "type": "function"
        },
        {
          "inputs": [
            {
              "internalType": "uint256",
              "name": "_marketId",
              "type": "uint256"
            },
            {
              "internalType": "bool",
              "name": "_isYes",
              "type": "bool"
            },
            {
              "internalType": "uint256",
              "name": "_amount",
              "type": "uint256"
            }
          ],
          "name": "purchaseTokens",
          "outputs": [],
          "stateMutability": "nonpayable",
          "type": "function"
        },
        {
          "inputs": [
            {
              "internalType": "uint256",
              "name": "_marketId",
              "type": "uint256"
            },
            {
              "internalType": "bytes[]",
              "name": "_priceUpdateData",
              "type": "bytes[]"
            }
          ],
          "name": "resolveMarket",
          "outputs": [],
          "stateMutability": "payable",
          "type": "function"
        },
        {
          "inputs": [
            {
              "internalType": "uint256",
              "name": "_marketId",
              "type": "uint256"
            },
            {
              "internalType": "bool",
              "name": "_isYes",
              "type": "bool"
            },
            {
              "internalType": "uint256",
              "name": "_amount",
              "type": "uint256"
            }
          ],
          "name": "sellTokens",
          "outputs": [],
          "stateMutability": "nonpayable",
          "type": "function"
        },
        {
          "inputs": [],
          "name": "token",
          "outputs": [
            {
              "internalType": "contract IERC20",
              "name": "",
              "type": "address"
            }
          ],
          "stateMutability": "view",
          "type": "function"
        },
        {
          "inputs": [],
          "name": "totalMarkets",
          "outputs": [
            {
              "internalType": "uint256",
              "name": "",
              "type": "uint256"
            }
          ],
          "stateMutability": "view",
          "type": "function"
        },
        {
          "inputs": [
            {
              "internalType": "uint256",
              "name": "",
              "type": "uint256"
            },
            {
              "internalType": "address",
              "name": "",
              "type": "address"
            }
          ],
          "name": "userBets",
          "outputs": [
            {
              "internalType": "uint256",
              "name": "yesTokens",
              "type": "uint256"
            },
            {
              "internalType": "uint256",
              "name": "noTokens",
              "type": "uint256"
            }
          ],
          "stateMutability": "view",
          "type": "function"
        }
      ],
      "evm": {
        "bytecode": {
          "linkReferences": {},
          "object": "60806040523480156200001157600080fd5b506040516200339738038062003397833981810160405281019062000037919062000133565b600160008190555081600160006101000a81548173ffffffffffffffffffffffffffffffffffffffff021916908373ffffffffffffffffffffffffffffffffffffffff16021790555080600260006101000a81548173ffffffffffffffffffffffffffffffffffffffff021916908373ffffffffffffffffffffffffffffffffffffffff16021790555050506200017a565b600080fd5b600073ffffffffffffffffffffffffffffffffffffffff82169050919050565b6000620000fb82620000ce565b9050919050565b6200010d81620000ee565b81146200011957600080fd5b50565b6000815190506200012d8162000102565b92915050565b600080604083850312156200014d576200014c620000c9565b5b60006200015d858286016200011c565b925050602062000170858286016200011c565b9150509250929050565b61320d806200018a6000396000f3fe6080604052600436106100dd5760003560e01c8063867fbf5f1161007f578063d2ca0a5811610059578063d2ca0a58146102d7578063de2bafe114610302578063df1da7901461032b578063fc0c546a14610354576100dd565b8063867fbf5f1461023757806392a8db3f1461027d578063c03fb87c14610299576100dd565b80632d11c58a116100bb5780632d11c58a1461015f5780633ec791931461018a5780637d06a8e1146101ce5780638162486b1461020c576100dd565b80630962ef79146100e25780632630c12f1461010b5780632ae3b49f14610136575b600080fd5b3480156100ee57600080fd5b50610109600480360381019061010491906118c0565b61037f565b005b34801561011757600080fd5b506101206105cb565b60405161012d919061196c565b60405180910390f35b34801561014257600080fd5b5061015d60048036038101906101589190611b03565b6105f1565b005b34801561016b57600080fd5b5061017461081d565b6040516101819190611ba9565b60405180910390f35b34801561019657600080fd5b506101b160048036038101906101ac91906118c0565b610822565b6040516101c5989796959493929190611c5e565b60405180910390f35b3480156101da57600080fd5b506101f560048036038101906101f09190611d21565b61092e565b604051610203929190611d61565b60405180910390f35b34801561021857600080fd5b5061022161095f565b60405161022e9190611ba9565b60405180910390f35b34801561024357600080fd5b5061025e600480360381019061025991906118c0565b610965565b6040516102749a99989796959493929190611d99565b60405180910390f35b61029760048036038101906102929190611e9c565b610a5b565b005b3480156102a557600080fd5b506102c060048036038101906102bb9190611d21565b610de4565b6040516102ce929190611d61565b60405180910390f35b3480156102e357600080fd5b506102ec610e51565b6040516102f9919061210f565b60405180910390f35b34801561030e57600080fd5b506103296004803603810190610324919061215d565b61102f565b005b34801561033757600080fd5b50610352600480360381019061034d919061215d565b6112d3565b005b34801561036057600080fd5b50610369611603565b60405161037691906121d1565b60405180910390f35b610387611629565b60006004600083815260200190815260200160002090508060080160009054906101000a900460ff166103ef576040517f08c379a00000000000000000000000000000000000000000000000000000000081526004016103e690612238565b60405180910390fd5b60006005600084815260200190815260200160002060003373ffffffffffffffffffffffffffffffffffffffff1673ffffffffffffffffffffffffffffffffffffffff168152602001908152602001600020905060008260080160019054906101000a900460ff1615610495578260060154836007015484600601546104759190612287565b836000015461048491906122bb565b61048e919061232c565b90506104ca565b8260070154836007015484600601546104ae9190612287565b83600101546104bd91906122bb565b6104c7919061232c565b90505b6000811161050d576040517f08c379a0000000000000000000000000000000000000000000000000000000008152600401610504906123a9565b60405180910390fd5b600082600001819055506000826001018190555061056e3382600160009054906101000a900473ffffffffffffffffffffffffffffffffffffffff1673ffffffffffffffffffffffffffffffffffffffff1661166f9092919063ffffffff16565b3373ffffffffffffffffffffffffffffffffffffffff16847f3300bdb359cfb956935bca32e9db727413eab1ca84341f2e36caea85bb796968836040516105b59190611ba9565b60405180910390a35050506105c86116ee565b50565b600260009054906101000a900473ffffffffffffffffffffffffffffffffffffffff1681565b428311610633576040517f08c379a000000000000000000000000000000000000000000000000000000000815260040161062a9061243b565b60405180910390fd5b828211610675576040517f08c379a000000000000000000000000000000000000000000000000000000000815260040161066c906124cd565b60405180910390fd5b600084116106b8576040517f08c379a00000000000000000000000000000000000000000000000000000000081526004016106af9061255f565b60405180910390fd5b600360008154809291906106cb9061257f565b9190505550604051806101400160405280600354815260200186815260200185815260200184815260200183815260200182815260200160008152602001600081526020016000151581526020016000151581525060046000600354815260200190815260200160002060008201518160000155602082015181600101908161075491906127c9565b5060408201518160020155606082015181600301556080820151816004015560a0820151816005015560c0820151816006015560e082015181600701556101008201518160080160006101000a81548160ff0219169083151502179055506101208201518160080160016101000a81548160ff0219169083151502179055509050506003547f76e4f7547f65d724459a9d5e9c22f475d043d441fe6b65bb4b4f007e5902e5f98686868660405161080e949392919061289b565b60405180910390a25050505050565b600181565b6060600080600080600080600080600460008b8152602001908152602001600020905080600101816002015482600301548360040154846006015485600701548660080160009054906101000a900460ff168760080160019054906101000a900460ff16878054610892906125f6565b80601f01602080910402602001604051908101604052809291908181526020018280546108be906125f6565b801561090b5780601f106108e05761010080835404028352916020019161090b565b820191906000526020600020905b8154815290600101906020018083116108ee57829003601f168201915b505050505097509850985098509850985098509850985050919395975091939597565b6005602052816000526040600020602052806000526040600020600091509150508060000154908060010154905082565b60035481565b600460205280600052604060002060009150905080600001549080600101805461098e906125f6565b80601f01602080910402602001604051908101604052809291908181526020018280546109ba906125f6565b8015610a075780601f106109dc57610100808354040283529160200191610a07565b820191906000526020600020905b8154815290600101906020018083116109ea57829003601f168201915b5050505050908060020154908060030154908060040154908060050154908060060154908060070154908060080160009054906101000a900460ff16908060080160019054906101000a900460ff1690508a565b60006004600085815260200190815260200160002090508060040154421015610ab9576040517f08c379a0000000000000000000000000000000000000000000000000000000008152600401610ab090612933565b60405180910390fd5b8060080160009054906101000a900460ff1615610b0b576040517f08c379a0000000000000000000000000000000000000000000000000000000008152600401610b029061299f565b60405180910390fd5b6000600260009054906101000a900473ffffffffffffffffffffffffffffffffffffffff1673ffffffffffffffffffffffffffffffffffffffff1663d47eed4585856040518363ffffffff1660e01b8152600401610b6a929190612b23565b602060405180830381865afa158015610b87573d6000803e3d6000fd5b505050506040513d601f19601f82011682018060405250810190610bab9190612b5c565b9050600260009054906101000a900473ffffffffffffffffffffffffffffffffffffffff1673ffffffffffffffffffffffffffffffffffffffff1663ef9e5e288286866040518463ffffffff1660e01b8152600401610c0b929190612b23565b6000604051808303818588803b158015610c2457600080fd5b505af1158015610c38573d6000803e3d6000fd5b50505050506000600260009054906101000a900473ffffffffffffffffffffffffffffffffffffffff1673ffffffffffffffffffffffffffffffffffffffff1663a4ae35e08460050154603c6040518363ffffffff1660e01b8152600401610ca1929190612bc4565b608060405180830381865afa158015610cbe573d6000803e3d6000fd5b505050506040513d601f19601f82011682018060405250810190610ce29190612d1c565b9050600081604001517fffffffffffffffffffffffffffffffffffffffffffffffffffffffffffffffff610d169190612d49565b600a610d229190612ec6565b670de0b6b3a7640000836000015167ffffffffffffffff16610d4491906122bb565b610d4e919061232c565b905083600201548110158460080160016101000a81548160ff02191690831515021790555060018460080160006101000a81548160ff021916908315150217905550867f6d4d544f5a6dcf38d77a232d3ef7358625c74877a1ad954fcb507872e7a05eaf8560080160019054906101000a900460ff1683604051610dd3929190612f11565b60405180910390a250505050505050565b60008060006005600086815260200190815260200160002060008573ffffffffffffffffffffffffffffffffffffffff1673ffffffffffffffffffffffffffffffffffffffff16815260200190815260200160002090508060000154816001015492509250509250929050565b6060600060035467ffffffffffffffff811115610e7157610e706119a2565b5b604051908082528060200260200182016040528015610eaa57816020015b610e9761181c565b815260200190600190039081610e8f5790505b5090506000600190505b600354811161102757600460008281526020019081526020016000206040518061014001604052908160008201548152602001600182018054610ef6906125f6565b80601f0160208091040260200160405190810160405280929190818152602001828054610f22906125f6565b8015610f6f5780601f10610f4457610100808354040283529160200191610f6f565b820191906000526020600020905b815481529060010190602001808311610f5257829003601f168201915b505050505081526020016002820154815260200160038201548152602001600482015481526020016005820154815260200160068201548152602001600782015481526020016008820160009054906101000a900460ff161515151581526020016008820160019054906101000a900460ff16151515158152505082600183610ff89190612f3a565b8151811061100957611008612f6e565b5b6020026020010181905250808061101f9061257f565b915050610eb4565b508091505090565b611037611629565b600060046000858152602001908152602001600020905080600301544210611094576040517f08c379a000000000000000000000000000000000000000000000000000000000815260040161108b90612fe9565b60405180910390fd5b8060080160009054906101000a900460ff16156110e6576040517f08c379a00000000000000000000000000000000000000000000000000000000081526004016110dd9061299f565b60405180910390fd5b60008211611129576040517f08c379a000000000000000000000000000000000000000000000000000000000815260040161112090613055565b60405180910390fd5b6000606460018461113a91906122bb565b611144919061232c565b9050600081846111549190612f3a565b90506111a5333086600160009054906101000a900473ffffffffffffffffffffffffffffffffffffffff1673ffffffffffffffffffffffffffffffffffffffff166116f8909392919063ffffffff16565b60006005600088815260200190815260200160002060003373ffffffffffffffffffffffffffffffffffffffff1673ffffffffffffffffffffffffffffffffffffffff1681526020019081526020016000209050851561123a57818460060160008282546112139190612287565b925050819055508181600001600082825461122e9190612287565b92505081905550611271565b8184600701600082825461124e9190612287565b92505081905550818160010160008282546112699190612287565b925050819055505b3373ffffffffffffffffffffffffffffffffffffffff16877f41227b769ee0a4211cc4bedd7bcc4e075b16c9e4f250ccaf913f21335d910a9a88856040516112ba929190612f11565b60405180910390a3505050506112ce6116ee565b505050565b6112db611629565b600060046000858152602001908152602001600020905080600301544210611338576040517f08c379a000000000000000000000000000000000000000000000000000000000815260040161132f90612fe9565b60405180910390fd5b8060080160009054906101000a900460ff161561138a576040517f08c379a00000000000000000000000000000000000000000000000000000000081526004016113819061299f565b60405180910390fd5b600082116113cd576040517f08c379a00000000000000000000000000000000000000000000000000000000081526004016113c490613055565b60405180910390fd5b60006005600086815260200190815260200160002060003373ffffffffffffffffffffffffffffffffffffffff1673ffffffffffffffffffffffffffffffffffffffff168152602001908152602001600020905083156114a957828160000154101561146e576040517f08c379a0000000000000000000000000000000000000000000000000000000008152600401611465906130c1565b60405180910390fd5b828260060160008282546114829190612f3a565b925050819055508281600001600082825461149d9190612f3a565b92505081905550611527565b82816001015410156114f0576040517f08c379a00000000000000000000000000000000000000000000000000000000081526004016114e79061312d565b60405180910390fd5b828260070160008282546115049190612f3a565b925050819055508281600101600082825461151f9190612f3a565b925050819055505b6000606460018561153891906122bb565b611542919061232c565b9050600081856115529190612f3a565b90506115a13382600160009054906101000a900473ffffffffffffffffffffffffffffffffffffffff1673ffffffffffffffffffffffffffffffffffffffff1661166f9092919063ffffffff16565b3373ffffffffffffffffffffffffffffffffffffffff16877f9e654539a77d3295483a677608ae9fe60c8350fd80fd544acd4e90cbcf3ab2bb88886040516115ea929190612f11565b60405180910390a3505050506115fe6116ee565b505050565b600160009054906101000a900473ffffffffffffffffffffffffffffffffffffffff1681565b600260005403611665576040517f3ee5aeb500000000000000000000000000000000000000000000000000000000815260040160405180910390fd5b6002600081905550565b6116e9838473ffffffffffffffffffffffffffffffffffffffff1663a9059cbb85856040516024016116a292919061315c565b604051602081830303815290604052915060e01b6020820180517bffffffffffffffffffffffffffffffffffffffffffffffffffffffff838183161783525050505061177a565b505050565b6001600081905550565b611774848573ffffffffffffffffffffffffffffffffffffffff166323b872dd86868660405160240161172d93929190613185565b604051602081830303815290604052915060e01b6020820180517bffffffffffffffffffffffffffffffffffffffffffffffffffffffff838183161783525050505061177a565b50505050565b600080602060008451602086016000885af18061179d576040513d6000823e3d81fd5b3d9250600051915050600082146117b85760018114156117d4565b60008473ffffffffffffffffffffffffffffffffffffffff163b145b1561181657836040517f5274afe700000000000000000000000000000000000000000000000000000000815260040161180d91906131bc565b60405180910390fd5b50505050565b60405180610140016040528060008152602001606081526020016000815260200160008152602001600081526020016000801916815260200160008152602001600081526020016000151581526020016000151581525090565b6000604051905090565b600080fd5b600080fd5b6000819050919050565b61189d8161188a565b81146118a857600080fd5b50565b6000813590506118ba81611894565b92915050565b6000602082840312156118d6576118d5611880565b5b60006118e4848285016118ab565b91505092915050565b600073ffffffffffffffffffffffffffffffffffffffff82169050919050565b6000819050919050565b600061193261192d611928846118ed565b61190d565b6118ed565b9050919050565b600061194482611917565b9050919050565b600061195682611939565b9050919050565b6119668161194b565b82525050565b6000602082019050611981600083018461195d565b92915050565b600080fd5b600080fd5b6000601f19601f8301169050919050565b7f4e487b7100000000000000000000000000000000000000000000000000000000600052604160045260246000fd5b6119da82611991565b810181811067ffffffffffffffff821117156119f9576119f86119a2565b5b80604052505050565b6000611a0c611876565b9050611a1882826119d1565b919050565b600067ffffffffffffffff821115611a3857611a376119a2565b5b611a4182611991565b9050602081019050919050565b82818337600083830152505050565b6000611a70611a6b84611a1d565b611a02565b905082815260208101848484011115611a8c57611a8b61198c565b5b611a97848285611a4e565b509392505050565b600082601f830112611ab457611ab3611987565b5b8135611ac4848260208601611a5d565b91505092915050565b6000819050919050565b611ae081611acd565b8114611aeb57600080fd5b50565b600081359050611afd81611ad7565b92915050565b600080600080600060a08688031215611b1f57611b1e611880565b5b600086013567ffffffffffffffff811115611b3d57611b3c611885565b5b611b4988828901611a9f565b9550506020611b5a888289016118ab565b9450506040611b6b888289016118ab565b9350506060611b7c888289016118ab565b9250506080611b8d88828901611aee565b9150509295509295909350565b611ba38161188a565b82525050565b6000602082019050611bbe6000830184611b9a565b92915050565b600081519050919050565b600082825260208201905092915050565b60005b83811015611bfe578082015181840152602081019050611be3565b60008484015250505050565b6000611c1582611bc4565b611c1f8185611bcf565b9350611c2f818560208601611be0565b611c3881611991565b840191505092915050565b60008115159050919050565b611c5881611c43565b82525050565b6000610100820190508181036000830152611c79818b611c0a565b9050611c88602083018a611b9a565b611c956040830189611b9a565b611ca26060830188611b9a565b611caf6080830187611b9a565b611cbc60a0830186611b9a565b611cc960c0830185611c4f565b611cd660e0830184611c4f565b9998505050505050505050565b6000611cee826118ed565b9050919050565b611cfe81611ce3565b8114611d0957600080fd5b50565b600081359050611d1b81611cf5565b92915050565b60008060408385031215611d3857611d37611880565b5b6000611d46858286016118ab565b9250506020611d5785828601611d0c565b9150509250929050565b6000604082019050611d766000830185611b9a565b611d836020830184611b9a565b9392505050565b611d9381611acd565b82525050565b600061014082019050611daf600083018d611b9a565b8181036020830152611dc1818c611c0a565b9050611dd0604083018b611b9a565b611ddd606083018a611b9a565b611dea6080830189611b9a565b611df760a0830188611d8a565b611e0460c0830187611b9a565b611e1160e0830186611b9a565b611e1f610100830185611c4f565b611e2d610120830184611c4f565b9b9a5050505050505050505050565b600080fd5b600080fd5b60008083601f840112611e5c57611e5b611987565b5b8235905067ffffffffffffffff811115611e7957611e78611e3c565b5b602083019150836020820283011115611e9557611e94611e41565b5b9250929050565b600080600060408486031215611eb557611eb4611880565b5b6000611ec3868287016118ab565b935050602084013567ffffffffffffffff811115611ee457611ee3611885565b5b611ef086828701611e46565b92509250509250925092565b600081519050919050565b600082825260208201905092915050565b6000819050602082019050919050565b611f318161188a565b82525050565b600082825260208201905092915050565b6000611f5382611bc4565b611f5d8185611f37565b9350611f6d818560208601611be0565b611f7681611991565b840191505092915050565b611f8a81611acd565b82525050565b611f9981611c43565b82525050565b600061014083016000830151611fb86000860182611f28565b5060208301518482036020860152611fd08282611f48565b9150506040830151611fe56040860182611f28565b506060830151611ff86060860182611f28565b50608083015161200b6080860182611f28565b5060a083015161201e60a0860182611f81565b5060c083015161203160c0860182611f28565b5060e083015161204460e0860182611f28565b50610100830151612059610100860182611f90565b5061012083015161206e610120860182611f90565b508091505092915050565b60006120858383611f9f565b905092915050565b6000602082019050919050565b60006120a582611efc565b6120af8185611f07565b9350836020820285016120c185611f18565b8060005b858110156120fd57848403895281516120de8582612079565b94506120e98361208d565b925060208a019950506001810190506120c5565b50829750879550505050505092915050565b60006020820190508181036000830152612129818461209a565b905092915050565b61213a81611c43565b811461214557600080fd5b50565b60008135905061215781612131565b92915050565b60008060006060848603121561217657612175611880565b5b6000612184868287016118ab565b935050602061219586828701612148565b92505060406121a6868287016118ab565b9150509250925092565b60006121bb82611939565b9050919050565b6121cb816121b0565b82525050565b60006020820190506121e660008301846121c2565b92915050565b7f4d61726b6574206e6f74207265736f6c76656420796574000000000000000000600082015250565b6000612222601783611bcf565b915061222d826121ec565b602082019050919050565b6000602082019050818103600083015261225181612215565b9050919050565b7f4e487b7100000000000000000000000000000000000000000000000000000000600052601160045260246000fd5b60006122928261188a565b915061229d8361188a565b92508282019050808211156122b5576122b4612258565b5b92915050565b60006122c68261188a565b91506122d18361188a565b92508282026122df8161188a565b915082820484148315176122f6576122f5612258565b5b5092915050565b7f4e487b7100000000000000000000000000000000000000000000000000000000600052601260045260246000fd5b60006123378261188a565b91506123428361188a565b925082612352576123516122fd565b5b828204905092915050565b7f4e6f207265776172647320746f20636c61696d00000000000000000000000000600082015250565b6000612393601383611bcf565b915061239e8261235d565b602082019050919050565b600060208201905081810360008301526123c281612386565b9050919050565b7f42657474696e6720646561646c696e65206d75737420626520696e207468652060008201527f6675747572650000000000000000000000000000000000000000000000000000602082015250565b6000612425602683611bcf565b9150612430826123c9565b604082019050919050565b6000602082019050818103600083015261245481612418565b9050919050565b7f5265736f6c7574696f6e2074696d65206d75737420626520616674657220626560008201527f7474696e6720646561646c696e65000000000000000000000000000000000000602082015250565b60006124b7602e83611bcf565b91506124c28261245b565b604082019050919050565b600060208201905081810360008301526124e6816124aa565b9050919050565b7f546172676574207072696365206d75737420626520677265617465722074686160008201527f6e20300000000000000000000000000000000000000000000000000000000000602082015250565b6000612549602383611bcf565b9150612554826124ed565b604082019050919050565b600060208201905081810360008301526125788161253c565b9050919050565b600061258a8261188a565b91507fffffffffffffffffffffffffffffffffffffffffffffffffffffffffffffffff82036125bc576125bb612258565b5b600182019050919050565b7f4e487b7100000000000000000000000000000000000000000000000000000000600052602260045260246000fd5b6000600282049050600182168061260e57607f821691505b602082108103612621576126206125c7565b5b50919050565b60008190508160005260206000209050919050565b60006020601f8301049050919050565b600082821b905092915050565b6000600883026126897fffffffffffffffffffffffffffffffffffffffffffffffffffffffffffffffff8261264c565b612693868361264c565b95508019841693508086168417925050509392505050565b60006126c66126c16126bc8461188a565b61190d565b61188a565b9050919050565b6000819050919050565b6126e0836126ab565b6126f46126ec826126cd565b848454612659565b825550505050565b600090565b6127096126fc565b6127148184846126d7565b505050565b5b818110156127385761272d600082612701565b60018101905061271a565b5050565b601f82111561277d5761274e81612627565b6127578461263c565b81016020851015612766578190505b61277a6127728561263c565b830182612719565b50505b505050565b600082821c905092915050565b60006127a060001984600802612782565b1980831691505092915050565b60006127b9838361278f565b9150826002028217905092915050565b6127d282611bc4565b67ffffffffffffffff8111156127eb576127ea6119a2565b5b6127f582546125f6565b61280082828561273c565b600060209050601f8311600181146128335760008415612821578287015190505b61282b85826127ad565b865550612893565b601f19841661284186612627565b60005b8281101561286957848901518255600182019150602085019450602081019050612844565b868310156128865784890151612882601f89168261278f565b8355505b6001600288020188555050505b505050505050565b600060808201905081810360008301526128b58187611c0a565b90506128c46020830186611b9a565b6128d16040830185611b9a565b6128de6060830184611b9a565b95945050505050565b7f546f6f206561726c7920746f207265736f6c7665000000000000000000000000600082015250565b600061291d601483611bcf565b9150612928826128e7565b602082019050919050565b6000602082019050818103600083015261294c81612910565b9050919050565b7f4d61726b657420616c7265616479207265736f6c766564000000000000000000600082015250565b6000612989601783611bcf565b915061299482612953565b602082019050919050565b600060208201905081810360008301526129b88161297c565b9050919050565b600082825260208201905092915050565b6000819050919050565b600082825260208201905092915050565b60006129f783856129da565b9350612a04838584611a4e565b612a0d83611991565b840190509392505050565b6000612a258484846129eb565b90509392505050565b600080fd5b600080fd5b600080fd5b60008083356001602003843603038112612a5a57612a59612a38565b5b83810192508235915060208301925067ffffffffffffffff821115612a8257612a81612a2e565b5b600182023603831315612a9857612a97612a33565b5b509250929050565b6000602082019050919050565b6000612ab983856129bf565b935083602084028501612acb846129d0565b8060005b87811015612b11578484038952612ae68284612a3d565b612af1868284612a18565b9550612afc84612aa0565b935060208b019a505050600181019050612acf565b50829750879450505050509392505050565b60006020820190508181036000830152612b3e818486612aad565b90509392505050565b600081519050612b5681611894565b92915050565b600060208284031215612b7257612b71611880565b5b6000612b8084828501612b47565b91505092915050565b6000819050919050565b6000612bae612ba9612ba484612b89565b61190d565b61188a565b9050919050565b612bbe81612b93565b82525050565b6000604082019050612bd96000830185611d8a565b612be66020830184612bb5565b9392505050565b600080fd5b60008160070b9050919050565b612c0881612bf2565b8114612c1357600080fd5b50565b600081519050612c2581612bff565b92915050565b600067ffffffffffffffff82169050919050565b612c4881612c2b565b8114612c5357600080fd5b50565b600081519050612c6581612c3f565b92915050565b60008160030b9050919050565b612c8181612c6b565b8114612c8c57600080fd5b50565b600081519050612c9e81612c78565b92915050565b600060808284031215612cba57612cb9612bed565b5b612cc46080611a02565b90506000612cd484828501612c16565b6000830152506020612ce884828501612c56565b6020830152506040612cfc84828501612c8f565b6040830152506060612d1084828501612b47565b60608301525092915050565b600060808284031215612d3257612d31611880565b5b6000612d4084828501612ca4565b91505092915050565b6000612d5482612c6b565b9150612d5f83612c6b565b9250828202612d6d81612c6b565b9150808214612d7f57612d7e612258565b5b5092915050565b60008160011c9050919050565b6000808291508390505b6001851115612ddd57808604811115612db957612db8612258565b5b6001851615612dc85780820291505b8081029050612dd685612d86565b9450612d9d565b94509492505050565b600082612df65760019050612eb2565b81612e045760009050612eb2565b8160018114612e1a5760028114612e2457612e53565b6001915050612eb2565b60ff841115612e3657612e35612258565b5b8360020a915084821115612e4d57612e4c612258565b5b50612eb2565b5060208310610133831016604e8410600b8410161715612e885782820a905083811115612e8357612e82612258565b5b612eb2565b612e958484846001612d93565b92509050818404811115612eac57612eab612258565b5b81810290505b9392505050565b600060ff82169050919050565b6000612ed18261188a565b9150612edc83612eb9565b9250612f097fffffffffffffffffffffffffffffffffffffffffffffffffffffffffffffffff8484612de6565b905092915050565b6000604082019050612f266000830185611c4f565b612f336020830184611b9a565b9392505050565b6000612f458261188a565b9150612f508361188a565b9250828203905081811115612f6857612f67612258565b5b92915050565b7f4e487b7100000000000000000000000000000000000000000000000000000000600052603260045260246000fd5b7f42657474696e6720706572696f642068617320656e6465640000000000000000600082015250565b6000612fd3601883611bcf565b9150612fde82612f9d565b602082019050919050565b6000602082019050818103600083015261300281612fc6565b9050919050565b7f416d6f756e74206d7573742062652067726561746572207468616e2030000000600082015250565b600061303f601d83611bcf565b915061304a82613009565b602082019050919050565b6000602082019050818103600083015261306e81613032565b9050919050565b7f496e73756666696369656e742059657320746f6b656e73000000000000000000600082015250565b60006130ab601783611bcf565b91506130b682613075565b602082019050919050565b600060208201905081810360008301526130da8161309e565b9050919050565b7f496e73756666696369656e74204e6f20746f6b656e7300000000000000000000600082015250565b6000613117601683611bcf565b9150613122826130e1565b602082019050919050565b600060208201905081810360008301526131468161310a565b9050919050565b61315681611ce3565b82525050565b6000604082019050613171600083018561314d565b61317e6020830184611b9a565b9392505050565b600060608201905061319a600083018661314d565b6131a7602083018561314d565b6131b46040830184611b9a565b949350505050565b60006020820190506131d1600083018461314d565b9291505056fea2646970667358221220ad6fc8292730815d89f98555f1c975cd786cc1c46f2062e5d164a1f36dff16be64736f6c63430008180033",
          "opcodes": "PUSH1 0x80 PUSH1 0x40 MSTORE CALLVALUE DUP1 ISZERO PUSH3 0x11 JUMPI PUSH1 0x0 DUP1 REVERT JUMPDEST POP PUSH1 0x40 MLOAD PUSH3 0x3397 CODESIZE SUB DUP1 PUSH3 0x3397 DUP4 CODECOPY DUP2 DUP2 ADD PUSH1 0x40 MSTORE DUP2 ADD SWAP1 PUSH3 0x37 SWAP2 SWAP1 PUSH3 0x133 JUMP JUMPDEST PUSH1 0x1 PUSH1 0x0 DUP2 SWAP1 SSTORE POP DUP2 PUSH1 0x1 PUSH1 0x0 PUSH2 0x100 EXP DUP2 SLOAD DUP2 PUSH20 0xFFFFFFFFFFFFFFFFFFFFFFFFFFFFFFFFFFFFFFFF MUL NOT AND SWAP1 DUP4 PUSH20 0xFFFFFFFFFFFFFFFFFFFFFFFFFFFFFFFFFFFFFFFF AND MUL OR SWAP1 SSTORE POP DUP1 PUSH1 0x2 PUSH1 0x0 PUSH2 0x100 EXP DUP2 SLOAD DUP2 PUSH20 0xFFFFFFFFFFFFFFFFFFFFFFFFFFFFFFFFFFFFFFFF MUL NOT AND SWAP1 DUP4 PUSH20 0xFFFFFFFFFFFFFFFFFFFFFFFFFFFFFFFFFFFFFFFF AND MUL OR SWAP1 SSTORE POP POP POP PUSH3 0x17A JUMP JUMPDEST PUSH1 0x0 DUP1 REVERT JUMPDEST PUSH1 0x0 PUSH20 0xFFFFFFFFFFFFFFFFFFFFFFFFFFFFFFFFFFFFFFFF DUP3 AND SWAP1 POP SWAP2 SWAP1 POP JUMP JUMPDEST PUSH1 0x0 PUSH3 0xFB DUP3 PUSH3 0xCE JUMP JUMPDEST SWAP1 POP SWAP2 SWAP1 POP JUMP JUMPDEST PUSH3 0x10D DUP2 PUSH3 0xEE JUMP JUMPDEST DUP2 EQ PUSH3 0x119 JUMPI PUSH1 0x0 DUP1 REVERT JUMPDEST POP JUMP JUMPDEST PUSH1 0x0 DUP2 MLOAD SWAP1 POP PUSH3 0x12D DUP2 PUSH3 0x102 JUMP JUMPDEST SWAP3 SWAP2 POP POP JUMP JUMPDEST PUSH1 0x0 DUP1 PUSH1 0x40 DUP4 DUP6 SUB SLT ISZERO PUSH3 0x14D JUMPI PUSH3 0x14C PUSH3 0xC9 JUMP JUMPDEST JUMPDEST PUSH1 0x0 PUSH3 0x15D DUP6 DUP3 DUP7 ADD PUSH3 0x11C JUMP JUMPDEST SWAP3 POP POP PUSH1 0x20 PUSH3 0x170 DUP6 DUP3 DUP7 ADD PUSH3 0x11C JUMP JUMPDEST SWAP2 POP POP SWAP3 POP SWAP3 SWAP1 POP JUMP JUMPDEST PUSH2 0x320D DUP1 PUSH3 0x18A PUSH1 0x0 CODECOPY PUSH1 0x0 RETURN INVALID PUSH1 0x80 PUSH1 0x40 MSTORE PUSH1 0x4 CALLDATASIZE LT PUSH2 0xDD JUMPI PUSH1 0x0 CALLDATALOAD PUSH1 0xE0 SHR DUP1 PUSH4 0x867FBF5F GT PUSH2 0x7F JUMPI DUP1 PUSH4 0xD2CA0A58 GT PUSH2 0x59 JUMPI DUP1 PUSH4 0xD2CA0A58 EQ PUSH2 0x2D7 JUMPI DUP1 PUSH4 0xDE2BAFE1 EQ PUSH2 0x302 JUMPI DUP1 PUSH4 0xDF1DA790 EQ PUSH2 0x32B JUMPI DUP1 PUSH4 0xFC0C546A EQ PUSH2 0x354 JUMPI PUSH2 0xDD JUMP JUMPDEST DUP1 PUSH4 0x867FBF5F EQ PUSH2 0x237 JUMPI DUP1 PUSH4 0x92A8DB3F EQ PUSH2 0x27D JUMPI DUP1 PUSH4 0xC03FB87C EQ PUSH2 0x299 JUMPI PUSH2 0xDD JUMP JUMPDEST DUP1 PUSH4 0x2D11C58A GT PUSH2 0xBB JUMPI DUP1 PUSH4 0x2D11C58A EQ PUSH2 0x15F JUMPI DUP1 PUSH4 0x3EC79193 EQ PUSH2 0x18A JUMPI DUP1 PUSH4 0x7D06A8E1 EQ PUSH2 0x1CE JUMPI DUP1 PUSH4 0x8162486B EQ PUSH2 0x20C JUMPI PUSH2 0xDD JUMP JUMPDEST DUP1 PUSH4 0x962EF79 EQ PUSH2 0xE2 JUMPI DUP1 PUSH4 0x2630C12F EQ PUSH2 0x10B JUMPI DUP1 PUSH4 0x2AE3B49F EQ PUSH2 0x136 JUMPI JUMPDEST PUSH1 0x0 DUP1 REVERT JUMPDEST CALLVALUE DUP1 ISZERO PUSH2 0xEE JUMPI PUSH1 0x0 DUP1 REVERT JUMPDEST POP PUSH2 0x109 PUSH1 0x4 DUP1 CALLDATASIZE SUB DUP2 ADD SWAP1 PUSH2 0x104 SWAP2 SWAP1 PUSH2 0x18C0 JUMP JUMPDEST PUSH2 0x37F JUMP JUMPDEST STOP JUMPDEST CALLVALUE DUP1 ISZERO PUSH2 0x117 JUMPI PUSH1 0x0 DUP1 REVERT JUMPDEST POP PUSH2 0x120 PUSH2 0x5CB JUMP JUMPDEST PUSH1 0x40 MLOAD PUSH2 0x12D SWAP2 SWAP1 PUSH2 0x196C JUMP JUMPDEST PUSH1 0x40 MLOAD DUP1 SWAP2 SUB SWAP1 RETURN JUMPDEST CALLVALUE DUP1 ISZERO PUSH2 0x142 JUMPI PUSH1 0x0 DUP1 REVERT JUMPDEST POP PUSH2 0x15D PUSH1 0x4 DUP1 CALLDATASIZE SUB DUP2 ADD SWAP1 PUSH2 0x158 SWAP2 SWAP1 PUSH2 0x1B03 JUMP JUMPDEST PUSH2 0x5F1 JUMP JUMPDEST STOP JUMPDEST CALLVALUE DUP1 ISZERO PUSH2 0x16B JUMPI PUSH1 0x0 DUP1 REVERT JUMPDEST POP PUSH2 0x174 PUSH2 0x81D JUMP JUMPDEST PUSH1 0x40 MLOAD PUSH2 0x181 SWAP2 SWAP1 PUSH2 0x1BA9 JUMP JUMPDEST PUSH1 0x40 MLOAD DUP1 SWAP2 SUB SWAP1 RETURN JUMPDEST CALLVALUE DUP1 ISZERO PUSH2 0x196 JUMPI PUSH1 0x0 DUP1 REVERT JUMPDEST POP PUSH2 0x1B1 PUSH1 0x4 DUP1 CALLDATASIZE SUB DUP2 ADD SWAP1 PUSH2 0x1AC SWAP2 SWAP1 PUSH2 0x18C0 JUMP JUMPDEST PUSH2 0x822 JUMP JUMPDEST PUSH1 0x40 MLOAD PUSH2 0x1C5 SWAP9 SWAP8 SWAP7 SWAP6 SWAP5 SWAP4 SWAP3 SWAP2 SWAP1 PUSH2 0x1C5E JUMP JUMPDEST PUSH1 0x40 MLOAD DUP1 SWAP2 SUB SWAP1 RETURN JUMPDEST CALLVALUE DUP1 ISZERO PUSH2 0x1DA JUMPI PUSH1 0x0 DUP1 REVERT JUMPDEST POP PUSH2 0x1F5 PUSH1 0x4 DUP1 CALLDATASIZE SUB DUP2 ADD SWAP1 PUSH2 0x1F0 SWAP2 SWAP1 PUSH2 0x1D21 JUMP JUMPDEST PUSH2 0x92E JUMP JUMPDEST PUSH1 0x40 MLOAD PUSH2 0x203 SWAP3 SWAP2 SWAP1 PUSH2 0x1D61 JUMP JUMPDEST PUSH1 0x40 MLOAD DUP1 SWAP2 SUB SWAP1 RETURN JUMPDEST CALLVALUE DUP1 ISZERO PUSH2 0x218 JUMPI PUSH1 0x0 DUP1 REVERT JUMPDEST POP PUSH2 0x221 PUSH2 0x95F JUMP JUMPDEST PUSH1 0x40 MLOAD PUSH2 0x22E SWAP2 SWAP1 PUSH2 0x1BA9 JUMP JUMPDEST PUSH1 0x40 MLOAD DUP1 SWAP2 SUB SWAP1 RETURN JUMPDEST CALLVALUE DUP1 ISZERO PUSH2 0x243 JUMPI PUSH1 0x0 DUP1 REVERT JUMPDEST POP PUSH2 0x25E PUSH1 0x4 DUP1 CALLDATASIZE SUB DUP2 ADD SWAP1 PUSH2 0x259 SWAP2 SWAP1 PUSH2 0x18C0 JUMP JUMPDEST PUSH2 0x965 JUMP JUMPDEST PUSH1 0x40 MLOAD PUSH2 0x274 SWAP11 SWAP10 SWAP9 SWAP8 SWAP7 SWAP6 SWAP5 SWAP4 SWAP3 SWAP2 SWAP1 PUSH2 0x1D99 JUMP JUMPDEST PUSH1 0x40 MLOAD DUP1 SWAP2 SUB SWAP1 RETURN JUMPDEST PUSH2 0x297 PUSH1 0x4 DUP1 CALLDATASIZE SUB DUP2 ADD SWAP1 PUSH2 0x292 SWAP2 SWAP1 PUSH2 0x1E9C JUMP JUMPDEST PUSH2 0xA5B JUMP JUMPDEST STOP JUMPDEST CALLVALUE DUP1 ISZERO PUSH2 0x2A5 JUMPI PUSH1 0x0 DUP1 REVERT JUMPDEST POP PUSH2 0x2C0 PUSH1 0x4 DUP1 CALLDATASIZE SUB DUP2 ADD SWAP1 PUSH2 0x2BB SWAP2 SWAP1 PUSH2 0x1D21 JUMP JUMPDEST PUSH2 0xDE4 JUMP JUMPDEST PUSH1 0x40 MLOAD PUSH2 0x2CE SWAP3 SWAP2 SWAP1 PUSH2 0x1D61 JUMP JUMPDEST PUSH1 0x40 MLOAD DUP1 SWAP2 SUB SWAP1 RETURN JUMPDEST CALLVALUE DUP1 ISZERO PUSH2 0x2E3 JUMPI PUSH1 0x0 DUP1 REVERT JUMPDEST POP PUSH2 0x2EC PUSH2 0xE51 JUMP JUMPDEST PUSH1 0x40 MLOAD PUSH2 0x2F9 SWAP2 SWAP1 PUSH2 0x210F JUMP JUMPDEST PUSH1 0x40 MLOAD DUP1 SWAP2 SUB SWAP1 RETURN JUMPDEST CALLVALUE DUP1 ISZERO PUSH2 0x30E JUMPI PUSH1 0x0 DUP1 REVERT JUMPDEST POP PUSH2 0x329 PUSH1 0x4 DUP1 CALLDATASIZE SUB DUP2 ADD SWAP1 PUSH2 0x324 SWAP2 SWAP1 PUSH2 0x215D JUMP JUMPDEST PUSH2 0x102F JUMP JUMPDEST STOP JUMPDEST CALLVALUE DUP1 ISZERO PUSH2 0x337 JUMPI PUSH1 0x0 DUP1 REVERT JUMPDEST POP PUSH2 0x352 PUSH1 0x4 DUP1 CALLDATASIZE SUB DUP2 ADD SWAP1 PUSH2 0x34D SWAP2 SWAP1 PUSH2 0x215D JUMP JUMPDEST PUSH2 0x12D3 JUMP JUMPDEST STOP JUMPDEST CALLVALUE DUP1 ISZERO PUSH2 0x360 JUMPI PUSH1 0x0 DUP1 REVERT JUMPDEST POP PUSH2 0x369 PUSH2 0x1603 JUMP JUMPDEST PUSH1 0x40 MLOAD PUSH2 0x376 SWAP2 SWAP1 PUSH2 0x21D1 JUMP JUMPDEST PUSH1 0x40 MLOAD DUP1 SWAP2 SUB SWAP1 RETURN JUMPDEST PUSH2 0x387 PUSH2 0x1629 JUMP JUMPDEST PUSH1 0x0 PUSH1 0x4 PUSH1 0x0 DUP4 DUP2 MSTORE PUSH1 0x20 ADD SWAP1 DUP2 MSTORE PUSH1 0x20 ADD PUSH1 0x0 KECCAK256 SWAP1 POP DUP1 PUSH1 0x8 ADD PUSH1 0x0 SWAP1 SLOAD SWAP1 PUSH2 0x100 EXP SWAP1 DIV PUSH1 0xFF AND PUSH2 0x3EF JUMPI PUSH1 0x40 MLOAD PUSH32 0x8C379A000000000000000000000000000000000000000000000000000000000 DUP2 MSTORE PUSH1 0x4 ADD PUSH2 0x3E6 SWAP1 PUSH2 0x2238 JUMP JUMPDEST PUSH1 0x40 MLOAD DUP1 SWAP2 SUB SWAP1 REVERT JUMPDEST PUSH1 0x0 PUSH1 0x5 PUSH1 0x0 DUP5 DUP2 MSTORE PUSH1 0x20 ADD SWAP1 DUP2 MSTORE PUSH1 0x20 ADD PUSH1 0x0 KECCAK256 PUSH1 0x0 CALLER PUSH20 0xFFFFFFFFFFFFFFFFFFFFFFFFFFFFFFFFFFFFFFFF AND PUSH20 0xFFFFFFFFFFFFFFFFFFFFFFFFFFFFFFFFFFFFFFFF AND DUP2 MSTORE PUSH1 0x20 ADD SWAP1 DUP2 MSTORE PUSH1 0x20 ADD PUSH1 0x0 KECCAK256 SWAP1 POP PUSH1 0x0 DUP3 PUSH1 0x8 ADD PUSH1 0x1 SWAP1 SLOAD SWAP1 PUSH2 0x100 EXP SWAP1 DIV PUSH1 0xFF AND ISZERO PUSH2 0x495 JUMPI DUP3 PUSH1 0x6 ADD SLOAD DUP4 PUSH1 0x7 ADD SLOAD DUP5 PUSH1 0x6 ADD SLOAD PUSH2 0x475 SWAP2 SWAP1 PUSH2 0x2287 JUMP JUMPDEST DUP4 PUSH1 0x0 ADD SLOAD PUSH2 0x484 SWAP2 SWAP1 PUSH2 0x22BB JUMP JUMPDEST PUSH2 0x48E SWAP2 SWAP1 PUSH2 0x232C JUMP JUMPDEST SWAP1 POP PUSH2 0x4CA JUMP JUMPDEST DUP3 PUSH1 0x7 ADD SLOAD DUP4 PUSH1 0x7 ADD SLOAD DUP5 PUSH1 0x6 ADD SLOAD PUSH2 0x4AE SWAP2 SWAP1 PUSH2 0x2287 JUMP JUMPDEST DUP4 PUSH1 0x1 ADD SLOAD PUSH2 0x4BD SWAP2 SWAP1 PUSH2 0x22BB JUMP JUMPDEST PUSH2 0x4C7 SWAP2 SWAP1 PUSH2 0x232C JUMP JUMPDEST SWAP1 POP JUMPDEST PUSH1 0x0 DUP2 GT PUSH2 0x50D JUMPI PUSH1 0x40 MLOAD PUSH32 0x8C379A000000000000000000000000000000000000000000000000000000000 DUP2 MSTORE PUSH1 0x4 ADD PUSH2 0x504 SWAP1 PUSH2 0x23A9 JUMP JUMPDEST PUSH1 0x40 MLOAD DUP1 SWAP2 SUB SWAP1 REVERT JUMPDEST PUSH1 0x0 DUP3 PUSH1 0x0 ADD DUP2 SWAP1 SSTORE POP PUSH1 0x0 DUP3 PUSH1 0x1 ADD DUP2 SWAP1 SSTORE POP PUSH2 0x56E CALLER DUP3 PUSH1 0x1 PUSH1 0x0 SWAP1 SLOAD SWAP1 PUSH2 0x100 EXP SWAP1 DIV PUSH20 0xFFFFFFFFFFFFFFFFFFFFFFFFFFFFFFFFFFFFFFFF AND PUSH20 0xFFFFFFFFFFFFFFFFFFFFFFFFFFFFFFFFFFFFFFFF AND PUSH2 0x166F SWAP1 SWAP3 SWAP2 SWAP1 PUSH4 0xFFFFFFFF AND JUMP JUMPDEST CALLER PUSH20 0xFFFFFFFFFFFFFFFFFFFFFFFFFFFFFFFFFFFFFFFF AND DUP5 PUSH32 0x3300BDB359CFB956935BCA32E9DB727413EAB1CA84341F2E36CAEA85BB796968 DUP4 PUSH1 0x40 MLOAD PUSH2 0x5B5 SWAP2 SWAP1 PUSH2 0x1BA9 JUMP JUMPDEST PUSH1 0x40 MLOAD DUP1 SWAP2 SUB SWAP1 LOG3 POP POP POP PUSH2 0x5C8 PUSH2 0x16EE JUMP JUMPDEST POP JUMP JUMPDEST PUSH1 0x2 PUSH1 0x0 SWAP1 SLOAD SWAP1 PUSH2 0x100 EXP SWAP1 DIV PUSH20 0xFFFFFFFFFFFFFFFFFFFFFFFFFFFFFFFFFFFFFFFF AND DUP2 JUMP JUMPDEST TIMESTAMP DUP4 GT PUSH2 0x633 JUMPI PUSH1 0x40 MLOAD PUSH32 0x8C379A000000000000000000000000000000000000000000000000000000000 DUP2 MSTORE PUSH1 0x4 ADD PUSH2 0x62A SWAP1 PUSH2 0x243B JUMP JUMPDEST PUSH1 0x40 MLOAD DUP1 SWAP2 SUB SWAP1 REVERT JUMPDEST DUP3 DUP3 GT PUSH2 0x675 JUMPI PUSH1 0x40 MLOAD PUSH32 0x8C379A000000000000000000000000000000000000000000000000000000000 DUP2 MSTORE PUSH1 0x4 ADD PUSH2 0x66C SWAP1 PUSH2 0x24CD JUMP JUMPDEST PUSH1 0x40 MLOAD DUP1 SWAP2 SUB SWAP1 REVERT JUMPDEST PUSH1 0x0 DUP5 GT PUSH2 0x6B8 JUMPI PUSH1 0x40 MLOAD PUSH32 0x8C379A000000000000000000000000000000000000000000000000000000000 DUP2 MSTORE PUSH1 0x4 ADD PUSH2 0x6AF SWAP1 PUSH2 0x255F JUMP JUMPDEST PUSH1 0x40 MLOAD DUP1 SWAP2 SUB SWAP1 REVERT JUMPDEST PUSH1 0x3 PUSH1 0x0 DUP2 SLOAD DUP1 SWAP3 SWAP2 SWAP1 PUSH2 0x6CB SWAP1 PUSH2 0x257F JUMP JUMPDEST SWAP2 SWAP1 POP SSTORE POP PUSH1 0x40 MLOAD DUP1 PUSH2 0x140 ADD PUSH1 0x40 MSTORE DUP1 PUSH1 0x3 SLOAD DUP2 MSTORE PUSH1 0x20 ADD DUP7 DUP2 MSTORE PUSH1 0x20 ADD DUP6 DUP2 MSTORE PUSH1 0x20 ADD DUP5 DUP2 MSTORE PUSH1 0x20 ADD DUP4 DUP2 MSTORE PUSH1 0x20 ADD DUP3 DUP2 MSTORE PUSH1 0x20 ADD PUSH1 0x0 DUP2 MSTORE PUSH1 0x20 ADD PUSH1 0x0 DUP2 MSTORE PUSH1 0x20 ADD PUSH1 0x0 ISZERO ISZERO DUP2 MSTORE PUSH1 0x20 ADD PUSH1 0x0 ISZERO ISZERO DUP2 MSTORE POP PUSH1 0x4 PUSH1 0x0 PUSH1 0x3 SLOAD DUP2 MSTORE PUSH1 0x20 ADD SWAP1 DUP2 MSTORE PUSH1 0x20 ADD PUSH1 0x0 KECCAK256 PUSH1 0x0 DUP3 ADD MLOAD DUP2 PUSH1 0x0 ADD SSTORE PUSH1 0x20 DUP3 ADD MLOAD DUP2 PUSH1 0x1 ADD SWAP1 DUP2 PUSH2 0x754 SWAP2 SWAP1 PUSH2 0x27C9 JUMP JUMPDEST POP PUSH1 0x40 DUP3 ADD MLOAD DUP2 PUSH1 0x2 ADD SSTORE PUSH1 0x60 DUP3 ADD MLOAD DUP2 PUSH1 0x3 ADD SSTORE PUSH1 0x80 DUP3 ADD MLOAD DUP2 PUSH1 0x4 ADD SSTORE PUSH1 0xA0 DUP3 ADD MLOAD DUP2 PUSH1 0x5 ADD SSTORE PUSH1 0xC0 DUP3 ADD MLOAD DUP2 PUSH1 0x6 ADD SSTORE PUSH1 0xE0 DUP3 ADD MLOAD DUP2 PUSH1 0x7 ADD SSTORE PUSH2 0x100 DUP3 ADD MLOAD DUP2 PUSH1 0x8 ADD PUSH1 0x0 PUSH2 0x100 EXP DUP2 SLOAD DUP2 PUSH1 0xFF MUL NOT AND SWAP1 DUP4 ISZERO ISZERO MUL OR SWAP1 SSTORE POP PUSH2 0x120 DUP3 ADD MLOAD DUP2 PUSH1 0x8 ADD PUSH1 0x1 PUSH2 0x100 EXP DUP2 SLOAD DUP2 PUSH1 0xFF MUL NOT AND SWAP1 DUP4 ISZERO ISZERO MUL OR SWAP1 SSTORE POP SWAP1 POP POP PUSH1 0x3 SLOAD PUSH32 0x76E4F7547F65D724459A9D5E9C22F475D043D441FE6B65BB4B4F007E5902E5F9 DUP7 DUP7 DUP7 DUP7 PUSH1 0x40 MLOAD PUSH2 0x80E SWAP5 SWAP4 SWAP3 SWAP2 SWAP1 PUSH2 0x289B JUMP JUMPDEST PUSH1 0x40 MLOAD DUP1 SWAP2 SUB SWAP1 LOG2 POP POP POP POP POP JUMP JUMPDEST PUSH1 0x1 DUP2 JUMP JUMPDEST PUSH1 0x60 PUSH1 0x0 DUP1 PUSH1 0x0 DUP1 PUSH1 0x0 DUP1 PUSH1 0x0 DUP1 PUSH1 0x4 PUSH1 0x0 DUP12 DUP2 MSTORE PUSH1 0x20 ADD SWAP1 DUP2 MSTORE PUSH1 0x20 ADD PUSH1 0x0 KECCAK256 SWAP1 POP DUP1 PUSH1 0x1 ADD DUP2 PUSH1 0x2 ADD SLOAD DUP3 PUSH1 0x3 ADD SLOAD DUP4 PUSH1 0x4 ADD SLOAD DUP5 PUSH1 0x6 ADD SLOAD DUP6 PUSH1 0x7 ADD SLOAD DUP7 PUSH1 0x8 ADD PUSH1 0x0 SWAP1 SLOAD SWAP1 PUSH2 0x100 EXP SWAP1 DIV PUSH1 0xFF AND DUP8 PUSH1 0x8 ADD PUSH1 0x1 SWAP1 SLOAD SWAP1 PUSH2 0x100 EXP SWAP1 DIV PUSH1 0xFF AND DUP8 DUP1 SLOAD PUSH2 0x892 SWAP1 PUSH2 0x25F6 JUMP JUMPDEST DUP1 PUSH1 0x1F ADD PUSH1 0x20 DUP1 SWAP2 DIV MUL PUSH1 0x20 ADD PUSH1 0x40 MLOAD SWAP1 DUP2 ADD PUSH1 0x40 MSTORE DUP1 SWAP3 SWAP2 SWAP1 DUP2 DUP2 MSTORE PUSH1 0x20 ADD DUP3 DUP1 SLOAD PUSH2 0x8BE SWAP1 PUSH2 0x25F6 JUMP JUMPDEST DUP1 ISZERO PUSH2 0x90B JUMPI DUP1 PUSH1 0x1F LT PUSH2 0x8E0 JUMPI PUSH2 0x100 DUP1 DUP4 SLOAD DIV MUL DUP4 MSTORE SWAP2 PUSH1 0x20 ADD SWAP2 PUSH2 0x90B JUMP JUMPDEST DUP3 ADD SWAP2 SWAP1 PUSH1 0x0 MSTORE PUSH1 0x20 PUSH1 0x0 KECCAK256 SWAP1 JUMPDEST DUP2 SLOAD DUP2 MSTORE SWAP1 PUSH1 0x1 ADD SWAP1 PUSH1 0x20 ADD DUP1 DUP4 GT PUSH2 0x8EE JUMPI DUP3 SWAP1 SUB PUSH1 0x1F AND DUP3 ADD SWAP2 JUMPDEST POP POP POP POP POP SWAP8 POP SWAP9 POP SWAP9 POP SWAP9 POP SWAP9 POP SWAP9 POP SWAP9 POP SWAP9 POP SWAP9 POP POP SWAP2 SWAP4 SWAP6 SWAP8 POP SWAP2 SWAP4 SWAP6 SWAP8 JUMP JUMPDEST PUSH1 0x5 PUSH1 0x20 MSTORE DUP2 PUSH1 0x0 MSTORE PUSH1 0x40 PUSH1 0x0 KECCAK256 PUSH1 0x20 MSTORE DUP1 PUSH1 0x0 MSTORE PUSH1 0x40 PUSH1 0x0 KECCAK256 PUSH1 0x0 SWAP2 POP SWAP2 POP POP DUP1 PUSH1 0x0 ADD SLOAD SWAP1 DUP1 PUSH1 0x1 ADD SLOAD SWAP1 POP DUP3 JUMP JUMPDEST PUSH1 0x3 SLOAD DUP2 JUMP JUMPDEST PUSH1 0x4 PUSH1 0x20 MSTORE DUP1 PUSH1 0x0 MSTORE PUSH1 0x40 PUSH1 0x0 KECCAK256 PUSH1 0x0 SWAP2 POP SWAP1 POP DUP1 PUSH1 0x0 ADD SLOAD SWAP1 DUP1 PUSH1 0x1 ADD DUP1 SLOAD PUSH2 0x98E SWAP1 PUSH2 0x25F6 JUMP JUMPDEST DUP1 PUSH1 0x1F ADD PUSH1 0x20 DUP1 SWAP2 DIV MUL PUSH1 0x20 ADD PUSH1 0x40 MLOAD SWAP1 DUP2 ADD PUSH1 0x40 MSTORE DUP1 SWAP3 SWAP2 SWAP1 DUP2 DUP2 MSTORE PUSH1 0x20 ADD DUP3 DUP1 SLOAD PUSH2 0x9BA SWAP1 PUSH2 0x25F6 JUMP JUMPDEST DUP1 ISZERO PUSH2 0xA07 JUMPI DUP1 PUSH1 0x1F LT PUSH2 0x9DC JUMPI PUSH2 0x100 DUP1 DUP4 SLOAD DIV MUL DUP4 MSTORE SWAP2 PUSH1 0x20 ADD SWAP2 PUSH2 0xA07 JUMP JUMPDEST DUP3 ADD SWAP2 SWAP1 PUSH1 0x0 MSTORE PUSH1 0x20 PUSH1 0x0 KECCAK256 SWAP1 JUMPDEST DUP2 SLOAD DUP2 MSTORE SWAP1 PUSH1 0x1 ADD SWAP1 PUSH1 0x20 ADD DUP1 DUP4 GT PUSH2 0x9EA JUMPI DUP3 SWAP1 SUB PUSH1 0x1F AND DUP3 ADD SWAP2 JUMPDEST POP POP POP POP POP SWAP1 DUP1 PUSH1 0x2 ADD SLOAD SWAP1 DUP1 PUSH1 0x3 ADD SLOAD SWAP1 DUP1 PUSH1 0x4 ADD SLOAD SWAP1 DUP1 PUSH1 0x5 ADD SLOAD SWAP1 DUP1 PUSH1 0x6 ADD SLOAD SWAP1 DUP1 PUSH1 0x7 ADD SLOAD SWAP1 DUP1 PUSH1 0x8 ADD PUSH1 0x0 SWAP1 SLOAD SWAP1 PUSH2 0x100 EXP SWAP1 DIV PUSH1 0xFF AND SWAP1 DUP1 PUSH1 0x8 ADD PUSH1 0x1 SWAP1 SLOAD SWAP1 PUSH2 0x100 EXP SWAP1 DIV PUSH1 0xFF AND SWAP1 POP DUP11 JUMP JUMPDEST PUSH1 0x0 PUSH1 0x4 PUSH1 0x0 DUP6 DUP2 MSTORE PUSH1 0x20 ADD SWAP1 DUP2 MSTORE PUSH1 0x20 ADD PUSH1 0x0 KECCAK256 SWAP1 POP DUP1 PUSH1 0x4 ADD SLOAD TIMESTAMP LT ISZERO PUSH2 0xAB9 JUMPI PUSH1 0x40 MLOAD PUSH32 0x8C379A000000000000000000000000000000000000000000000000000000000 DUP2 MSTORE PUSH1 0x4 ADD PUSH2 0xAB0 SWAP1 PUSH2 0x2933 JUMP JUMPDEST PUSH1 0x40 MLOAD DUP1 SWAP2 SUB SWAP1 REVERT JUMPDEST DUP1 PUSH1 0x8 ADD PUSH1 0x0 SWAP1 SLOAD SWAP1 PUSH2 0x100 EXP SWAP1 DIV PUSH1 0xFF AND ISZERO PUSH2 0xB0B JUMPI PUSH1 0x40 MLOAD PUSH32 0x8C379A000000000000000000000000000000000000000000000000000000000 DUP2 MSTORE PUSH1 0x4 ADD PUSH2 0xB02 SWAP1 PUSH2 0x299F JUMP JUMPDEST PUSH1 0x40 MLOAD DUP1 SWAP2 SUB SWAP1 REVERT JUMPDEST PUSH1 0x0 PUSH1 0x2 PUSH1 0x0 SWAP1 SLOAD SWAP1 PUSH2 0x100 EXP SWAP1 DIV PUSH20 0xFFFFFFFFFFFFFFFFFFFFFFFFFFFFFFFFFFFFFFFF AND PUSH20 0xFFFFFFFFFFFFFFFFFFFFFFFFFFFFFFFFFFFFFFFF AND PUSH4 0xD47EED45 DUP6 DUP6 PUSH1 0x40 MLOAD DUP4 PUSH4 0xFFFFFFFF AND PUSH1 0xE0 SHL DUP2 MSTORE PUSH1 0x4 ADD PUSH2 0xB6A SWAP3 SWAP2 SWAP1 PUSH2 0x2B23 JUMP JUMPDEST PUSH1 0x20 PUSH1 0x40 MLOAD DUP1 DUP4 SUB DUP2 DUP7 GAS STATICCALL ISZERO DUP1 ISZERO PUSH2 0xB87 JUMPI RETURNDATASIZE PUSH1 0x0 DUP1 RETURNDATACOPY RETURNDATASIZE PUSH1 0x0 REVERT JUMPDEST POP POP POP POP PUSH1 0x40 MLOAD RETURNDATASIZE PUSH1 0x1F NOT PUSH1 0x1F DUP3 ADD AND DUP3 ADD DUP1 PUSH1 0x40 MSTORE POP DUP2 ADD SWAP1 PUSH2 0xBAB SWAP2 SWAP1 PUSH2 0x2B5C JUMP JUMPDEST SWAP1 POP PUSH1 0x2 PUSH1 0x0 SWAP1 SLOAD SWAP1 PUSH2 0x100 EXP SWAP1 DIV PUSH20 0xFFFFFFFFFFFFFFFFFFFFFFFFFFFFFFFFFFFFFFFF AND PUSH20 0xFFFFFFFFFFFFFFFFFFFFFFFFFFFFFFFFFFFFFFFF AND PUSH4 0xEF9E5E28 DUP3 DUP7 DUP7 PUSH1 0x40 MLOAD DUP5 PUSH4 0xFFFFFFFF AND PUSH1 0xE0 SHL DUP2 MSTORE PUSH1 0x4 ADD PUSH2 0xC0B SWAP3 SWAP2 SWAP1 PUSH2 0x2B23 JUMP JUMPDEST PUSH1 0x0 PUSH1 0x40 MLOAD DUP1 DUP4 SUB DUP2 DUP6 DUP9 DUP1 EXTCODESIZE ISZERO DUP1 ISZERO PUSH2 0xC24 JUMPI PUSH1 0x0 DUP1 REVERT JUMPDEST POP GAS CALL ISZERO DUP1 ISZERO PUSH2 0xC38 JUMPI RETURNDATASIZE PUSH1 0x0 DUP1 RETURNDATACOPY RETURNDATASIZE PUSH1 0x0 REVERT JUMPDEST POP POP POP POP POP PUSH1 0x0 PUSH1 0x2 PUSH1 0x0 SWAP1 SLOAD SWAP1 PUSH2 0x100 EXP SWAP1 DIV PUSH20 0xFFFFFFFFFFFFFFFFFFFFFFFFFFFFFFFFFFFFFFFF AND PUSH20 0xFFFFFFFFFFFFFFFFFFFFFFFFFFFFFFFFFFFFFFFF AND PUSH4 0xA4AE35E0 DUP5 PUSH1 0x5 ADD SLOAD PUSH1 0x3C PUSH1 0x40 MLOAD DUP4 PUSH4 0xFFFFFFFF AND PUSH1 0xE0 SHL DUP2 MSTORE PUSH1 0x4 ADD PUSH2 0xCA1 SWAP3 SWAP2 SWAP1 PUSH2 0x2BC4 JUMP JUMPDEST PUSH1 0x80 PUSH1 0x40 MLOAD DUP1 DUP4 SUB DUP2 DUP7 GAS STATICCALL ISZERO DUP1 ISZERO PUSH2 0xCBE JUMPI RETURNDATASIZE PUSH1 0x0 DUP1 RETURNDATACOPY RETURNDATASIZE PUSH1 0x0 REVERT JUMPDEST POP POP POP POP PUSH1 0x40 MLOAD RETURNDATASIZE PUSH1 0x1F NOT PUSH1 0x1F DUP3 ADD AND DUP3 ADD DUP1 PUSH1 0x40 MSTORE POP DUP2 ADD SWAP1 PUSH2 0xCE2 SWAP2 SWAP1 PUSH2 0x2D1C JUMP JUMPDEST SWAP1 POP PUSH1 0x0 DUP2 PUSH1 0x40 ADD MLOAD PUSH32 0xFFFFFFFFFFFFFFFFFFFFFFFFFFFFFFFFFFFFFFFFFFFFFFFFFFFFFFFFFFFFFFFF PUSH2 0xD16 SWAP2 SWAP1 PUSH2 0x2D49 JUMP JUMPDEST PUSH1 0xA PUSH2 0xD22 SWAP2 SWAP1 PUSH2 0x2EC6 JUMP JUMPDEST PUSH8 0xDE0B6B3A7640000 DUP4 PUSH1 0x0 ADD MLOAD PUSH8 0xFFFFFFFFFFFFFFFF AND PUSH2 0xD44 SWAP2 SWAP1 PUSH2 0x22BB JUMP JUMPDEST PUSH2 0xD4E SWAP2 SWAP1 PUSH2 0x232C JUMP JUMPDEST SWAP1 POP DUP4 PUSH1 0x2 ADD SLOAD DUP2 LT ISZERO DUP5 PUSH1 0x8 ADD PUSH1 0x1 PUSH2 0x100 EXP DUP2 SLOAD DUP2 PUSH1 0xFF MUL NOT AND SWAP1 DUP4 ISZERO ISZERO MUL OR SWAP1 SSTORE POP PUSH1 0x1 DUP5 PUSH1 0x8 ADD PUSH1 0x0 PUSH2 0x100 EXP DUP2 SLOAD DUP2 PUSH1 0xFF MUL NOT AND SWAP1 DUP4 ISZERO ISZERO MUL OR SWAP1 SSTORE POP DUP7 PUSH32 0x6D4D544F5A6DCF38D77A232D3EF7358625C74877A1AD954FCB507872E7A05EAF DUP6 PUSH1 0x8 ADD PUSH1 0x1 SWAP1 SLOAD SWAP1 PUSH2 0x100 EXP SWAP1 DIV PUSH1 0xFF AND DUP4 PUSH1 0x40 MLOAD PUSH2 0xDD3 SWAP3 SWAP2 SWAP1 PUSH2 0x2F11 JUMP JUMPDEST PUSH1 0x40 MLOAD DUP1 SWAP2 SUB SWAP1 LOG2 POP POP POP POP POP POP POP JUMP JUMPDEST PUSH1 0x0 DUP1 PUSH1 0x0 PUSH1 0x5 PUSH1 0x0 DUP7 DUP2 MSTORE PUSH1 0x20 ADD SWAP1 DUP2 MSTORE PUSH1 0x20 ADD PUSH1 0x0 KECCAK256 PUSH1 0x0 DUP6 PUSH20 0xFFFFFFFFFFFFFFFFFFFFFFFFFFFFFFFFFFFFFFFF AND PUSH20 0xFFFFFFFFFFFFFFFFFFFFFFFFFFFFFFFFFFFFFFFF AND DUP2 MSTORE PUSH1 0x20 ADD SWAP1 DUP2 MSTORE PUSH1 0x20 ADD PUSH1 0x0 KECCAK256 SWAP1 POP DUP1 PUSH1 0x0 ADD SLOAD DUP2 PUSH1 0x1 ADD SLOAD SWAP3 POP SWAP3 POP POP SWAP3 POP SWAP3 SWAP1 POP JUMP JUMPDEST PUSH1 0x60 PUSH1 0x0 PUSH1 0x3 SLOAD PUSH8 0xFFFFFFFFFFFFFFFF DUP2 GT ISZERO PUSH2 0xE71 JUMPI PUSH2 0xE70 PUSH2 0x19A2 JUMP JUMPDEST JUMPDEST PUSH1 0x40 MLOAD SWAP1 DUP1 DUP3 MSTORE DUP1 PUSH1 0x20 MUL PUSH1 0x20 ADD DUP3 ADD PUSH1 0x40 MSTORE DUP1 ISZERO PUSH2 0xEAA JUMPI DUP2 PUSH1 0x20 ADD JUMPDEST PUSH2 0xE97 PUSH2 0x181C JUMP JUMPDEST DUP2 MSTORE PUSH1 0x20 ADD SWAP1 PUSH1 0x1 SWAP1 SUB SWAP1 DUP2 PUSH2 0xE8F JUMPI SWAP1 POP JUMPDEST POP SWAP1 POP PUSH1 0x0 PUSH1 0x1 SWAP1 POP JUMPDEST PUSH1 0x3 SLOAD DUP2 GT PUSH2 0x1027 JUMPI PUSH1 0x4 PUSH1 0x0 DUP3 DUP2 MSTORE PUSH1 0x20 ADD SWAP1 DUP2 MSTORE PUSH1 0x20 ADD PUSH1 0x0 KECCAK256 PUSH1 0x40 MLOAD DUP1 PUSH2 0x140 ADD PUSH1 0x40 MSTORE SWAP1 DUP2 PUSH1 0x0 DUP3 ADD SLOAD DUP2 MSTORE PUSH1 0x20 ADD PUSH1 0x1 DUP3 ADD DUP1 SLOAD PUSH2 0xEF6 SWAP1 PUSH2 0x25F6 JUMP JUMPDEST DUP1 PUSH1 0x1F ADD PUSH1 0x20 DUP1 SWAP2 DIV MUL PUSH1 0x20 ADD PUSH1 0x40 MLOAD SWAP1 DUP2 ADD PUSH1 0x40 MSTORE DUP1 SWAP3 SWAP2 SWAP1 DUP2 DUP2 MSTORE PUSH1 0x20 ADD DUP3 DUP1 SLOAD PUSH2 0xF22 SWAP1 PUSH2 0x25F6 JUMP JUMPDEST DUP1 ISZERO PUSH2 0xF6F JUMPI DUP1 PUSH1 0x1F LT PUSH2 0xF44 JUMPI PUSH2 0x100 DUP1 DUP4 SLOAD DIV MUL DUP4 MSTORE SWAP2 PUSH1 0x20 ADD SWAP2 PUSH2 0xF6F JUMP JUMPDEST DUP3 ADD SWAP2 SWAP1 PUSH1 0x0 MSTORE PUSH1 0x20 PUSH1 0x0 KECCAK256 SWAP1 JUMPDEST DUP2 SLOAD DUP2 MSTORE SWAP1 PUSH1 0x1 ADD SWAP1 PUSH1 0x20 ADD DUP1 DUP4 GT PUSH2 0xF52 JUMPI DUP3 SWAP1 SUB PUSH1 0x1F AND DUP3 ADD SWAP2 JUMPDEST POP POP POP POP POP DUP2 MSTORE PUSH1 0x20 ADD PUSH1 0x2 DUP3 ADD SLOAD DUP2 MSTORE PUSH1 0x20 ADD PUSH1 0x3 DUP3 ADD SLOAD DUP2 MSTORE PUSH1 0x20 ADD PUSH1 0x4 DUP3 ADD SLOAD DUP2 MSTORE PUSH1 0x20 ADD PUSH1 0x5 DUP3 ADD SLOAD DUP2 MSTORE PUSH1 0x20 ADD PUSH1 0x6 DUP3 ADD SLOAD DUP2 MSTORE PUSH1 0x20 ADD PUSH1 0x7 DUP3 ADD SLOAD DUP2 MSTORE PUSH1 0x20 ADD PUSH1 0x8 DUP3 ADD PUSH1 0x0 SWAP1 SLOAD SWAP1 PUSH2 0x100 EXP SWAP1 DIV PUSH1 0xFF AND ISZERO ISZERO ISZERO ISZERO DUP2 MSTORE PUSH1 0x20 ADD PUSH1 0x8 DUP3 ADD PUSH1 0x1 SWAP1 SLOAD SWAP1 PUSH2 0x100 EXP SWAP1 DIV PUSH1 0xFF AND ISZERO ISZERO ISZERO ISZERO DUP2 MSTORE POP POP DUP3 PUSH1 0x1 DUP4 PUSH2 0xFF8 SWAP2 SWAP1 PUSH2 0x2F3A JUMP JUMPDEST DUP2 MLOAD DUP2 LT PUSH2 0x1009 JUMPI PUSH2 0x1008 PUSH2 0x2F6E JUMP JUMPDEST JUMPDEST PUSH1 0x20 MUL PUSH1 0x20 ADD ADD DUP2 SWAP1 MSTORE POP DUP1 DUP1 PUSH2 0x101F SWAP1 PUSH2 0x257F JUMP JUMPDEST SWAP2 POP POP PUSH2 0xEB4 JUMP JUMPDEST POP DUP1 SWAP2 POP POP SWAP1 JUMP JUMPDEST PUSH2 0x1037 PUSH2 0x1629 JUMP JUMPDEST PUSH1 0x0 PUSH1 0x4 PUSH1 0x0 DUP6 DUP2 MSTORE PUSH1 0x20 ADD SWAP1 DUP2 MSTORE PUSH1 0x20 ADD PUSH1 0x0 KECCAK256 SWAP1 POP DUP1 PUSH1 0x3 ADD SLOAD TIMESTAMP LT PUSH2 0x1094 JUMPI PUSH1 0x40 MLOAD PUSH32 0x8C379A000000000000000000000000000000000000000000000000000000000 DUP2 MSTORE PUSH1 0x4 ADD PUSH2 0x108B SWAP1 PUSH2 0x2FE9 JUMP JUMPDEST PUSH1 0x40 MLOAD DUP1 SWAP2 SUB SWAP1 REVERT JUMPDEST DUP1 PUSH1 0x8 ADD PUSH1 0x0 SWAP1 SLOAD SWAP1 PUSH2 0x100 EXP SWAP1 DIV PUSH1 0xFF AND ISZERO PUSH2 0x10E6 JUMPI PUSH1 0x40 MLOAD PUSH32 0x8C379A000000000000000000000000000000000000000000000000000000000 DUP2 MSTORE PUSH1 0x4 ADD PUSH2 0x10DD SWAP1 PUSH2 0x299F JUMP JUMPDEST PUSH1 0x40 MLOAD DUP1 SWAP2 SUB SWAP1 REVERT JUMPDEST PUSH1 0x0 DUP3 GT PUSH2 0x1129 JUMPI PUSH1 0x40 MLOAD PUSH32 0x8C379A000000000000000000000000000000000000000000000000000000000 DUP2 MSTORE PUSH1 0x4 ADD PUSH2 0x1120 SWAP1 PUSH2 0x3055 JUMP JUMPDEST PUSH1 0x40 MLOAD DUP1 SWAP2 SUB SWAP1 REVERT JUMPDEST PUSH1 0x0 PUSH1 0x64 PUSH1 0x1 DUP5 PUSH2 0x113A SWAP2 SWAP1 PUSH2 0x22BB JUMP JUMPDEST PUSH2 0x1144 SWAP2 SWAP1 PUSH2 0x232C JUMP JUMPDEST SWAP1 POP PUSH1 0x0 DUP2 DUP5 PUSH2 0x1154 SWAP2 SWAP1 PUSH2 0x2F3A JUMP JUMPDEST SWAP1 POP PUSH2 0x11A5 CALLER ADDRESS DUP7 PUSH1 0x1 PUSH1 0x0 SWAP1 SLOAD SWAP1 PUSH2 0x100 EXP SWAP1 DIV PUSH20 0xFFFFFFFFFFFFFFFFFFFFFFFFFFFFFFFFFFFFFFFF AND PUSH20 0xFFFFFFFFFFFFFFFFFFFFFFFFFFFFFFFFFFFFFFFF AND PUSH2 0x16F8 SWAP1 SWAP4 SWAP3 SWAP2 SWAP1 PUSH4 0xFFFFFFFF AND JUMP JUMPDEST PUSH1 0x0 PUSH1 0x5 PUSH1 0x0 DUP9 DUP2 MSTORE PUSH1 0x20 ADD SWAP1 DUP2 MSTORE PUSH1 0x20 ADD PUSH1 0x0 KECCAK256 PUSH1 0x0 CALLER PUSH20 0xFFFFFFFFFFFFFFFFFFFFFFFFFFFFFFFFFFFFFFFF AND PUSH20 0xFFFFFFFFFFFFFFFFFFFFFFFFFFFFFFFFFFFFFFFF AND DUP2 MSTORE PUSH1 0x20 ADD SWAP1 DUP2 MSTORE PUSH1 0x20 ADD PUSH1 0x0 KECCAK256 SWAP1 POP DUP6 ISZERO PUSH2 0x123A JUMPI DUP2 DUP5 PUSH1 0x6 ADD PUSH1 0x0 DUP3 DUP3 SLOAD PUSH2 0x1213 SWAP2 SWAP1 PUSH2 0x2287 JUMP JUMPDEST SWAP3 POP POP DUP2 SWAP1 SSTORE POP DUP2 DUP2 PUSH1 0x0 ADD PUSH1 0x0 DUP3 DUP3 SLOAD PUSH2 0x122E SWAP2 SWAP1 PUSH2 0x2287 JUMP JUMPDEST SWAP3 POP POP DUP2 SWAP1 SSTORE POP PUSH2 0x1271 JUMP JUMPDEST DUP2 DUP5 PUSH1 0x7 ADD PUSH1 0x0 DUP3 DUP3 SLOAD PUSH2 0x124E SWAP2 SWAP1 PUSH2 0x2287 JUMP JUMPDEST SWAP3 POP POP DUP2 SWAP1 SSTORE POP DUP2 DUP2 PUSH1 0x1 ADD PUSH1 0x0 DUP3 DUP3 SLOAD PUSH2 0x1269 SWAP2 SWAP1 PUSH2 0x2287 JUMP JUMPDEST SWAP3 POP POP DUP2 SWAP1 SSTORE POP JUMPDEST CALLER PUSH20 0xFFFFFFFFFFFFFFFFFFFFFFFFFFFFFFFFFFFFFFFF AND DUP8 PUSH32 0x41227B769EE0A4211CC4BEDD7BCC4E075B16C9E4F250CCAF913F21335D910A9A DUP9 DUP6 PUSH1 0x40 MLOAD PUSH2 0x12BA SWAP3 SWAP2 SWAP1 PUSH2 0x2F11 JUMP JUMPDEST PUSH1 0x40 MLOAD DUP1 SWAP2 SUB SWAP1 LOG3 POP POP POP POP PUSH2 0x12CE PUSH2 0x16EE JUMP JUMPDEST POP POP POP JUMP JUMPDEST PUSH2 0x12DB PUSH2 0x1629 JUMP JUMPDEST PUSH1 0x0 PUSH1 0x4 PUSH1 0x0 DUP6 DUP2 MSTORE PUSH1 0x20 ADD SWAP1 DUP2 MSTORE PUSH1 0x20 ADD PUSH1 0x0 KECCAK256 SWAP1 POP DUP1 PUSH1 0x3 ADD SLOAD TIMESTAMP LT PUSH2 0x1338 JUMPI PUSH1 0x40 MLOAD PUSH32 0x8C379A000000000000000000000000000000000000000000000000000000000 DUP2 MSTORE PUSH1 0x4 ADD PUSH2 0x132F SWAP1 PUSH2 0x2FE9 JUMP JUMPDEST PUSH1 0x40 MLOAD DUP1 SWAP2 SUB SWAP1 REVERT JUMPDEST DUP1 PUSH1 0x8 ADD PUSH1 0x0 SWAP1 SLOAD SWAP1 PUSH2 0x100 EXP SWAP1 DIV PUSH1 0xFF AND ISZERO PUSH2 0x138A JUMPI PUSH1 0x40 MLOAD PUSH32 0x8C379A000000000000000000000000000000000000000000000000000000000 DUP2 MSTORE PUSH1 0x4 ADD PUSH2 0x1381 SWAP1 PUSH2 0x299F JUMP JUMPDEST PUSH1 0x40 MLOAD DUP1 SWAP2 SUB SWAP1 REVERT JUMPDEST PUSH1 0x0 DUP3 GT PUSH2 0x13CD JUMPI PUSH1 0x40 MLOAD PUSH32 0x8C379A000000000000000000000000000000000000000000000000000000000 DUP2 MSTORE PUSH1 0x4 ADD PUSH2 0x13C4 SWAP1 PUSH2 0x3055 JUMP JUMPDEST PUSH1 0x40 MLOAD DUP1 SWAP2 SUB SWAP1 REVERT JUMPDEST PUSH1 0x0 PUSH1 0x5 PUSH1 0x0 DUP7 DUP2 MSTORE PUSH1 0x20 ADD SWAP1 DUP2 MSTORE PUSH1 0x20 ADD PUSH1 0x0 KECCAK256 PUSH1 0x0 CALLER PUSH20 0xFFFFFFFFFFFFFFFFFFFFFFFFFFFFFFFFFFFFFFFF AND PUSH20 0xFFFFFFFFFFFFFFFFFFFFFFFFFFFFFFFFFFFFFFFF AND DUP2 MSTORE PUSH1 0x20 ADD SWAP1 DUP2 MSTORE PUSH1 0x20 ADD PUSH1 0x0 KECCAK256 SWAP1 POP DUP4 ISZERO PUSH2 0x14A9 JUMPI DUP3 DUP2 PUSH1 0x0 ADD SLOAD LT ISZERO PUSH2 0x146E JUMPI PUSH1 0x40 MLOAD PUSH32 0x8C379A000000000000000000000000000000000000000000000000000000000 DUP2 MSTORE PUSH1 0x4 ADD PUSH2 0x1465 SWAP1 PUSH2 0x30C1 JUMP JUMPDEST PUSH1 0x40 MLOAD DUP1 SWAP2 SUB SWAP1 REVERT JUMPDEST DUP3 DUP3 PUSH1 0x6 ADD PUSH1 0x0 DUP3 DUP3 SLOAD PUSH2 0x1482 SWAP2 SWAP1 PUSH2 0x2F3A JUMP JUMPDEST SWAP3 POP POP DUP2 SWAP1 SSTORE POP DUP3 DUP2 PUSH1 0x0 ADD PUSH1 0x0 DUP3 DUP3 SLOAD PUSH2 0x149D SWAP2 SWAP1 PUSH2 0x2F3A JUMP JUMPDEST SWAP3 POP POP DUP2 SWAP1 SSTORE POP PUSH2 0x1527 JUMP JUMPDEST DUP3 DUP2 PUSH1 0x1 ADD SLOAD LT ISZERO PUSH2 0x14F0 JUMPI PUSH1 0x40 MLOAD PUSH32 0x8C379A000000000000000000000000000000000000000000000000000000000 DUP2 MSTORE PUSH1 0x4 ADD PUSH2 0x14E7 SWAP1 PUSH2 0x312D JUMP JUMPDEST PUSH1 0x40 MLOAD DUP1 SWAP2 SUB SWAP1 REVERT JUMPDEST DUP3 DUP3 PUSH1 0x7 ADD PUSH1 0x0 DUP3 DUP3 SLOAD PUSH2 0x1504 SWAP2 SWAP1 PUSH2 0x2F3A JUMP JUMPDEST SWAP3 POP POP DUP2 SWAP1 SSTORE POP DUP3 DUP2 PUSH1 0x1 ADD PUSH1 0x0 DUP3 DUP3 SLOAD PUSH2 0x151F SWAP2 SWAP1 PUSH2 0x2F3A JUMP JUMPDEST SWAP3 POP POP DUP2 SWAP1 SSTORE POP JUMPDEST PUSH1 0x0 PUSH1 0x64 PUSH1 0x1 DUP6 PUSH2 0x1538 SWAP2 SWAP1 PUSH2 0x22BB JUMP JUMPDEST PUSH2 0x1542 SWAP2 SWAP1 PUSH2 0x232C JUMP JUMPDEST SWAP1 POP PUSH1 0x0 DUP2 DUP6 PUSH2 0x1552 SWAP2 SWAP1 PUSH2 0x2F3A JUMP JUMPDEST SWAP1 POP PUSH2 0x15A1 CALLER DUP3 PUSH1 0x1 PUSH1 0x0 SWAP1 SLOAD SWAP1 PUSH2 0x100 EXP SWAP1 DIV PUSH20 0xFFFFFFFFFFFFFFFFFFFFFFFFFFFFFFFFFFFFFFFF AND PUSH20 0xFFFFFFFFFFFFFFFFFFFFFFFFFFFFFFFFFFFFFFFF AND PUSH2 0x166F SWAP1 SWAP3 SWAP2 SWAP1 PUSH4 0xFFFFFFFF AND JUMP JUMPDEST CALLER PUSH20 0xFFFFFFFFFFFFFFFFFFFFFFFFFFFFFFFFFFFFFFFF AND DUP8 PUSH32 0x9E654539A77D3295483A677608AE9FE60C8350FD80FD544ACD4E90CBCF3AB2BB DUP9 DUP9 PUSH1 0x40 MLOAD PUSH2 0x15EA SWAP3 SWAP2 SWAP1 PUSH2 0x2F11 JUMP JUMPDEST PUSH1 0x40 MLOAD DUP1 SWAP2 SUB SWAP1 LOG3 POP POP POP POP PUSH2 0x15FE PUSH2 0x16EE JUMP JUMPDEST POP POP POP JUMP JUMPDEST PUSH1 0x1 PUSH1 0x0 SWAP1 SLOAD SWAP1 PUSH2 0x100 EXP SWAP1 DIV PUSH20 0xFFFFFFFFFFFFFFFFFFFFFFFFFFFFFFFFFFFFFFFF AND DUP2 JUMP JUMPDEST PUSH1 0x2 PUSH1 0x0 SLOAD SUB PUSH2 0x1665 JUMPI PUSH1 0x40 MLOAD PUSH32 0x3EE5AEB500000000000000000000000000000000000000000000000000000000 DUP2 MSTORE PUSH1 0x4 ADD PUSH1 0x40 MLOAD DUP1 SWAP2 SUB SWAP1 REVERT JUMPDEST PUSH1 0x2 PUSH1 0x0 DUP2 SWAP1 SSTORE POP JUMP JUMPDEST PUSH2 0x16E9 DUP4 DUP5 PUSH20 0xFFFFFFFFFFFFFFFFFFFFFFFFFFFFFFFFFFFFFFFF AND PUSH4 0xA9059CBB DUP6 DUP6 PUSH1 0x40 MLOAD PUSH1 0x24 ADD PUSH2 0x16A2 SWAP3 SWAP2 SWAP1 PUSH2 0x315C JUMP JUMPDEST PUSH1 0x40 MLOAD PUSH1 0x20 DUP2 DUP4 SUB SUB DUP2 MSTORE SWAP1 PUSH1 0x40 MSTORE SWAP2 POP PUSH1 0xE0 SHL PUSH1 0x20 DUP3 ADD DUP1 MLOAD PUSH28 0xFFFFFFFFFFFFFFFFFFFFFFFFFFFFFFFFFFFFFFFFFFFFFFFFFFFFFFFF DUP4 DUP2 DUP4 AND OR DUP4 MSTORE POP POP POP POP PUSH2 0x177A JUMP JUMPDEST POP POP POP JUMP JUMPDEST PUSH1 0x1 PUSH1 0x0 DUP2 SWAP1 SSTORE POP JUMP JUMPDEST PUSH2 0x1774 DUP5 DUP6 PUSH20 0xFFFFFFFFFFFFFFFFFFFFFFFFFFFFFFFFFFFFFFFF AND PUSH4 0x23B872DD DUP7 DUP7 DUP7 PUSH1 0x40 MLOAD PUSH1 0x24 ADD PUSH2 0x172D SWAP4 SWAP3 SWAP2 SWAP1 PUSH2 0x3185 JUMP JUMPDEST PUSH1 0x40 MLOAD PUSH1 0x20 DUP2 DUP4 SUB SUB DUP2 MSTORE SWAP1 PUSH1 0x40 MSTORE SWAP2 POP PUSH1 0xE0 SHL PUSH1 0x20 DUP3 ADD DUP1 MLOAD PUSH28 0xFFFFFFFFFFFFFFFFFFFFFFFFFFFFFFFFFFFFFFFFFFFFFFFFFFFFFFFF DUP4 DUP2 DUP4 AND OR DUP4 MSTORE POP POP POP POP PUSH2 0x177A JUMP JUMPDEST POP POP POP POP JUMP JUMPDEST PUSH1 0x0 DUP1 PUSH1 0x20 PUSH1 0x0 DUP5 MLOAD PUSH1 0x20 DUP7 ADD PUSH1 0x0 DUP9 GAS CALL DUP1 PUSH2 0x179D JUMPI PUSH1 0x40 MLOAD RETURNDATASIZE PUSH1 0x0 DUP3 RETURNDATACOPY RETURNDATASIZE DUP2 REVERT JUMPDEST RETURNDATASIZE SWAP3 POP PUSH1 0x0 MLOAD SWAP2 POP POP PUSH1 0x0 DUP3 EQ PUSH2 0x17B8 JUMPI PUSH1 0x1 DUP2 EQ ISZERO PUSH2 0x17D4 JUMP JUMPDEST PUSH1 0x0 DUP5 PUSH20 0xFFFFFFFFFFFFFFFFFFFFFFFFFFFFFFFFFFFFFFFF AND EXTCODESIZE EQ JUMPDEST ISZERO PUSH2 0x1816 JUMPI DUP4 PUSH1 0x40 MLOAD PUSH32 0x5274AFE700000000000000000000000000000000000000000000000000000000 DUP2 MSTORE PUSH1 0x4 ADD PUSH2 0x180D SWAP2 SWAP1 PUSH2 0x31BC JUMP JUMPDEST PUSH1 0x40 MLOAD DUP1 SWAP2 SUB SWAP1 REVERT JUMPDEST POP POP POP POP JUMP JUMPDEST PUSH1 0x40 MLOAD DUP1 PUSH2 0x140 ADD PUSH1 0x40 MSTORE DUP1 PUSH1 0x0 DUP2 MSTORE PUSH1 0x20 ADD PUSH1 0x60 DUP2 MSTORE PUSH1 0x20 ADD PUSH1 0x0 DUP2 MSTORE PUSH1 0x20 ADD PUSH1 0x0 DUP2 MSTORE PUSH1 0x20 ADD PUSH1 0x0 DUP2 MSTORE PUSH1 0x20 ADD PUSH1 0x0 DUP1 NOT AND DUP2 MSTORE PUSH1 0x20 ADD PUSH1 0x0 DUP2 MSTORE PUSH1 0x20 ADD PUSH1 0x0 DUP2 MSTORE PUSH1 0x20 ADD PUSH1 0x0 ISZERO ISZERO DUP2 MSTORE PUSH1 0x20 ADD PUSH1 0x0 ISZERO ISZERO DUP2 MSTORE POP SWAP1 JUMP JUMPDEST PUSH1 0x0 PUSH1 0x40 MLOAD SWAP1 POP SWAP1 JUMP JUMPDEST PUSH1 0x0 DUP1 REVERT JUMPDEST PUSH1 0x0 DUP1 REVERT JUMPDEST PUSH1 0x0 DUP2 SWAP1 POP SWAP2 SWAP1 POP JUMP JUMPDEST PUSH2 0x189D DUP2 PUSH2 0x188A JUMP JUMPDEST DUP2 EQ PUSH2 0x18A8 JUMPI PUSH1 0x0 DUP1 REVERT JUMPDEST POP JUMP JUMPDEST PUSH1 0x0 DUP2 CALLDATALOAD SWAP1 POP PUSH2 0x18BA DUP2 PUSH2 0x1894 JUMP JUMPDEST SWAP3 SWAP2 POP POP JUMP JUMPDEST PUSH1 0x0 PUSH1 0x20 DUP3 DUP5 SUB SLT ISZERO PUSH2 0x18D6 JUMPI PUSH2 0x18D5 PUSH2 0x1880 JUMP JUMPDEST JUMPDEST PUSH1 0x0 PUSH2 0x18E4 DUP5 DUP3 DUP6 ADD PUSH2 0x18AB JUMP JUMPDEST SWAP2 POP POP SWAP3 SWAP2 POP POP JUMP JUMPDEST PUSH1 0x0 PUSH20 0xFFFFFFFFFFFFFFFFFFFFFFFFFFFFFFFFFFFFFFFF DUP3 AND SWAP1 POP SWAP2 SWAP1 POP JUMP JUMPDEST PUSH1 0x0 DUP2 SWAP1 POP SWAP2 SWAP1 POP JUMP JUMPDEST PUSH1 0x0 PUSH2 0x1932 PUSH2 0x192D PUSH2 0x1928 DUP5 PUSH2 0x18ED JUMP JUMPDEST PUSH2 0x190D JUMP JUMPDEST PUSH2 0x18ED JUMP JUMPDEST SWAP1 POP SWAP2 SWAP1 POP JUMP JUMPDEST PUSH1 0x0 PUSH2 0x1944 DUP3 PUSH2 0x1917 JUMP JUMPDEST SWAP1 POP SWAP2 SWAP1 POP JUMP JUMPDEST PUSH1 0x0 PUSH2 0x1956 DUP3 PUSH2 0x1939 JUMP JUMPDEST SWAP1 POP SWAP2 SWAP1 POP JUMP JUMPDEST PUSH2 0x1966 DUP2 PUSH2 0x194B JUMP JUMPDEST DUP3 MSTORE POP POP JUMP JUMPDEST PUSH1 0x0 PUSH1 0x20 DUP3 ADD SWAP1 POP PUSH2 0x1981 PUSH1 0x0 DUP4 ADD DUP5 PUSH2 0x195D JUMP JUMPDEST SWAP3 SWAP2 POP POP JUMP JUMPDEST PUSH1 0x0 DUP1 REVERT JUMPDEST PUSH1 0x0 DUP1 REVERT JUMPDEST PUSH1 0x0 PUSH1 0x1F NOT PUSH1 0x1F DUP4 ADD AND SWAP1 POP SWAP2 SWAP1 POP JUMP JUMPDEST PUSH32 0x4E487B7100000000000000000000000000000000000000000000000000000000 PUSH1 0x0 MSTORE PUSH1 0x41 PUSH1 0x4 MSTORE PUSH1 0x24 PUSH1 0x0 REVERT JUMPDEST PUSH2 0x19DA DUP3 PUSH2 0x1991 JUMP JUMPDEST DUP2 ADD DUP2 DUP2 LT PUSH8 0xFFFFFFFFFFFFFFFF DUP3 GT OR ISZERO PUSH2 0x19F9 JUMPI PUSH2 0x19F8 PUSH2 0x19A2 JUMP JUMPDEST JUMPDEST DUP1 PUSH1 0x40 MSTORE POP POP POP JUMP JUMPDEST PUSH1 0x0 PUSH2 0x1A0C PUSH2 0x1876 JUMP JUMPDEST SWAP1 POP PUSH2 0x1A18 DUP3 DUP3 PUSH2 0x19D1 JUMP JUMPDEST SWAP2 SWAP1 POP JUMP JUMPDEST PUSH1 0x0 PUSH8 0xFFFFFFFFFFFFFFFF DUP3 GT ISZERO PUSH2 0x1A38 JUMPI PUSH2 0x1A37 PUSH2 0x19A2 JUMP JUMPDEST JUMPDEST PUSH2 0x1A41 DUP3 PUSH2 0x1991 JUMP JUMPDEST SWAP1 POP PUSH1 0x20 DUP2 ADD SWAP1 POP SWAP2 SWAP1 POP JUMP JUMPDEST DUP3 DUP2 DUP4 CALLDATACOPY PUSH1 0x0 DUP4 DUP4 ADD MSTORE POP POP POP JUMP JUMPDEST PUSH1 0x0 PUSH2 0x1A70 PUSH2 0x1A6B DUP5 PUSH2 0x1A1D JUMP JUMPDEST PUSH2 0x1A02 JUMP JUMPDEST SWAP1 POP DUP3 DUP2 MSTORE PUSH1 0x20 DUP2 ADD DUP5 DUP5 DUP5 ADD GT ISZERO PUSH2 0x1A8C JUMPI PUSH2 0x1A8B PUSH2 0x198C JUMP JUMPDEST JUMPDEST PUSH2 0x1A97 DUP5 DUP3 DUP6 PUSH2 0x1A4E JUMP JUMPDEST POP SWAP4 SWAP3 POP POP POP JUMP JUMPDEST PUSH1 0x0 DUP3 PUSH1 0x1F DUP4 ADD SLT PUSH2 0x1AB4 JUMPI PUSH2 0x1AB3 PUSH2 0x1987 JUMP JUMPDEST JUMPDEST DUP2 CALLDATALOAD PUSH2 0x1AC4 DUP5 DUP3 PUSH1 0x20 DUP7 ADD PUSH2 0x1A5D JUMP JUMPDEST SWAP2 POP POP SWAP3 SWAP2 POP POP JUMP JUMPDEST PUSH1 0x0 DUP2 SWAP1 POP SWAP2 SWAP1 POP JUMP JUMPDEST PUSH2 0x1AE0 DUP2 PUSH2 0x1ACD JUMP JUMPDEST DUP2 EQ PUSH2 0x1AEB JUMPI PUSH1 0x0 DUP1 REVERT JUMPDEST POP JUMP JUMPDEST PUSH1 0x0 DUP2 CALLDATALOAD SWAP1 POP PUSH2 0x1AFD DUP2 PUSH2 0x1AD7 JUMP JUMPDEST SWAP3 SWAP2 POP POP JUMP JUMPDEST PUSH1 0x0 DUP1 PUSH1 0x0 DUP1 PUSH1 0x0 PUSH1 0xA0 DUP7 DUP9 SUB SLT ISZERO PUSH2 0x1B1F JUMPI PUSH2 0x1B1E PUSH2 0x1880 JUMP JUMPDEST JUMPDEST PUSH1 0x0 DUP7 ADD CALLDATALOAD PUSH8 0xFFFFFFFFFFFFFFFF DUP2 GT ISZERO PUSH2 0x1B3D JUMPI PUSH2 0x1B3C PUSH2 0x1885 JUMP JUMPDEST JUMPDEST PUSH2 0x1B49 DUP9 DUP3 DUP10 ADD PUSH2 0x1A9F JUMP JUMPDEST SWAP6 POP POP PUSH1 0x20 PUSH2 0x1B5A DUP9 DUP3 DUP10 ADD PUSH2 0x18AB JUMP JUMPDEST SWAP5 POP POP PUSH1 0x40 PUSH2 0x1B6B DUP9 DUP3 DUP10 ADD PUSH2 0x18AB JUMP JUMPDEST SWAP4 POP POP PUSH1 0x60 PUSH2 0x1B7C DUP9 DUP3 DUP10 ADD PUSH2 0x18AB JUMP JUMPDEST SWAP3 POP POP PUSH1 0x80 PUSH2 0x1B8D DUP9 DUP3 DUP10 ADD PUSH2 0x1AEE JUMP JUMPDEST SWAP2 POP POP SWAP3 SWAP6 POP SWAP3 SWAP6 SWAP1 SWAP4 POP JUMP JUMPDEST PUSH2 0x1BA3 DUP2 PUSH2 0x188A JUMP JUMPDEST DUP3 MSTORE POP POP JUMP JUMPDEST PUSH1 0x0 PUSH1 0x20 DUP3 ADD SWAP1 POP PUSH2 0x1BBE PUSH1 0x0 DUP4 ADD DUP5 PUSH2 0x1B9A JUMP JUMPDEST SWAP3 SWAP2 POP POP JUMP JUMPDEST PUSH1 0x0 DUP2 MLOAD SWAP1 POP SWAP2 SWAP1 POP JUMP JUMPDEST PUSH1 0x0 DUP3 DUP3 MSTORE PUSH1 0x20 DUP3 ADD SWAP1 POP SWAP3 SWAP2 POP POP JUMP JUMPDEST PUSH1 0x0 JUMPDEST DUP4 DUP2 LT ISZERO PUSH2 0x1BFE JUMPI DUP1 DUP3 ADD MLOAD DUP2 DUP5 ADD MSTORE PUSH1 0x20 DUP2 ADD SWAP1 POP PUSH2 0x1BE3 JUMP JUMPDEST PUSH1 0x0 DUP5 DUP5 ADD MSTORE POP POP POP POP JUMP JUMPDEST PUSH1 0x0 PUSH2 0x1C15 DUP3 PUSH2 0x1BC4 JUMP JUMPDEST PUSH2 0x1C1F DUP2 DUP6 PUSH2 0x1BCF JUMP JUMPDEST SWAP4 POP PUSH2 0x1C2F DUP2 DUP6 PUSH1 0x20 DUP7 ADD PUSH2 0x1BE0 JUMP JUMPDEST PUSH2 0x1C38 DUP2 PUSH2 0x1991 JUMP JUMPDEST DUP5 ADD SWAP2 POP POP SWAP3 SWAP2 POP POP JUMP JUMPDEST PUSH1 0x0 DUP2 ISZERO ISZERO SWAP1 POP SWAP2 SWAP1 POP JUMP JUMPDEST PUSH2 0x1C58 DUP2 PUSH2 0x1C43 JUMP JUMPDEST DUP3 MSTORE POP POP JUMP JUMPDEST PUSH1 0x0 PUSH2 0x100 DUP3 ADD SWAP1 POP DUP2 DUP2 SUB PUSH1 0x0 DUP4 ADD MSTORE PUSH2 0x1C79 DUP2 DUP12 PUSH2 0x1C0A JUMP JUMPDEST SWAP1 POP PUSH2 0x1C88 PUSH1 0x20 DUP4 ADD DUP11 PUSH2 0x1B9A JUMP JUMPDEST PUSH2 0x1C95 PUSH1 0x40 DUP4 ADD DUP10 PUSH2 0x1B9A JUMP JUMPDEST PUSH2 0x1CA2 PUSH1 0x60 DUP4 ADD DUP9 PUSH2 0x1B9A JUMP JUMPDEST PUSH2 0x1CAF PUSH1 0x80 DUP4 ADD DUP8 PUSH2 0x1B9A JUMP JUMPDEST PUSH2 0x1CBC PUSH1 0xA0 DUP4 ADD DUP7 PUSH2 0x1B9A JUMP JUMPDEST PUSH2 0x1CC9 PUSH1 0xC0 DUP4 ADD DUP6 PUSH2 0x1C4F JUMP JUMPDEST PUSH2 0x1CD6 PUSH1 0xE0 DUP4 ADD DUP5 PUSH2 0x1C4F JUMP JUMPDEST SWAP10 SWAP9 POP POP POP POP POP POP POP POP POP JUMP JUMPDEST PUSH1 0x0 PUSH2 0x1CEE DUP3 PUSH2 0x18ED JUMP JUMPDEST SWAP1 POP SWAP2 SWAP1 POP JUMP JUMPDEST PUSH2 0x1CFE DUP2 PUSH2 0x1CE3 JUMP JUMPDEST DUP2 EQ PUSH2 0x1D09 JUMPI PUSH1 0x0 DUP1 REVERT JUMPDEST POP JUMP JUMPDEST PUSH1 0x0 DUP2 CALLDATALOAD SWAP1 POP PUSH2 0x1D1B DUP2 PUSH2 0x1CF5 JUMP JUMPDEST SWAP3 SWAP2 POP POP JUMP JUMPDEST PUSH1 0x0 DUP1 PUSH1 0x40 DUP4 DUP6 SUB SLT ISZERO PUSH2 0x1D38 JUMPI PUSH2 0x1D37 PUSH2 0x1880 JUMP JUMPDEST JUMPDEST PUSH1 0x0 PUSH2 0x1D46 DUP6 DUP3 DUP7 ADD PUSH2 0x18AB JUMP JUMPDEST SWAP3 POP POP PUSH1 0x20 PUSH2 0x1D57 DUP6 DUP3 DUP7 ADD PUSH2 0x1D0C JUMP JUMPDEST SWAP2 POP POP SWAP3 POP SWAP3 SWAP1 POP JUMP JUMPDEST PUSH1 0x0 PUSH1 0x40 DUP3 ADD SWAP1 POP PUSH2 0x1D76 PUSH1 0x0 DUP4 ADD DUP6 PUSH2 0x1B9A JUMP JUMPDEST PUSH2 0x1D83 PUSH1 0x20 DUP4 ADD DUP5 PUSH2 0x1B9A JUMP JUMPDEST SWAP4 SWAP3 POP POP POP JUMP JUMPDEST PUSH2 0x1D93 DUP2 PUSH2 0x1ACD JUMP JUMPDEST DUP3 MSTORE POP POP JUMP JUMPDEST PUSH1 0x0 PUSH2 0x140 DUP3 ADD SWAP1 POP PUSH2 0x1DAF PUSH1 0x0 DUP4 ADD DUP14 PUSH2 0x1B9A JUMP JUMPDEST DUP2 DUP2 SUB PUSH1 0x20 DUP4 ADD MSTORE PUSH2 0x1DC1 DUP2 DUP13 PUSH2 0x1C0A JUMP JUMPDEST SWAP1 POP PUSH2 0x1DD0 PUSH1 0x40 DUP4 ADD DUP12 PUSH2 0x1B9A JUMP JUMPDEST PUSH2 0x1DDD PUSH1 0x60 DUP4 ADD DUP11 PUSH2 0x1B9A JUMP JUMPDEST PUSH2 0x1DEA PUSH1 0x80 DUP4 ADD DUP10 PUSH2 0x1B9A JUMP JUMPDEST PUSH2 0x1DF7 PUSH1 0xA0 DUP4 ADD DUP9 PUSH2 0x1D8A JUMP JUMPDEST PUSH2 0x1E04 PUSH1 0xC0 DUP4 ADD DUP8 PUSH2 0x1B9A JUMP JUMPDEST PUSH2 0x1E11 PUSH1 0xE0 DUP4 ADD DUP7 PUSH2 0x1B9A JUMP JUMPDEST PUSH2 0x1E1F PUSH2 0x100 DUP4 ADD DUP6 PUSH2 0x1C4F JUMP JUMPDEST PUSH2 0x1E2D PUSH2 0x120 DUP4 ADD DUP5 PUSH2 0x1C4F JUMP JUMPDEST SWAP12 SWAP11 POP POP POP POP POP POP POP POP POP POP POP JUMP JUMPDEST PUSH1 0x0 DUP1 REVERT JUMPDEST PUSH1 0x0 DUP1 REVERT JUMPDEST PUSH1 0x0 DUP1 DUP4 PUSH1 0x1F DUP5 ADD SLT PUSH2 0x1E5C JUMPI PUSH2 0x1E5B PUSH2 0x1987 JUMP JUMPDEST JUMPDEST DUP3 CALLDATALOAD SWAP1 POP PUSH8 0xFFFFFFFFFFFFFFFF DUP2 GT ISZERO PUSH2 0x1E79 JUMPI PUSH2 0x1E78 PUSH2 0x1E3C JUMP JUMPDEST JUMPDEST PUSH1 0x20 DUP4 ADD SWAP2 POP DUP4 PUSH1 0x20 DUP3 MUL DUP4 ADD GT ISZERO PUSH2 0x1E95 JUMPI PUSH2 0x1E94 PUSH2 0x1E41 JUMP JUMPDEST JUMPDEST SWAP3 POP SWAP3 SWAP1 POP JUMP JUMPDEST PUSH1 0x0 DUP1 PUSH1 0x0 PUSH1 0x40 DUP5 DUP7 SUB SLT ISZERO PUSH2 0x1EB5 JUMPI PUSH2 0x1EB4 PUSH2 0x1880 JUMP JUMPDEST JUMPDEST PUSH1 0x0 PUSH2 0x1EC3 DUP7 DUP3 DUP8 ADD PUSH2 0x18AB JUMP JUMPDEST SWAP4 POP POP PUSH1 0x20 DUP5 ADD CALLDATALOAD PUSH8 0xFFFFFFFFFFFFFFFF DUP2 GT ISZERO PUSH2 0x1EE4 JUMPI PUSH2 0x1EE3 PUSH2 0x1885 JUMP JUMPDEST JUMPDEST PUSH2 0x1EF0 DUP7 DUP3 DUP8 ADD PUSH2 0x1E46 JUMP JUMPDEST SWAP3 POP SWAP3 POP POP SWAP3 POP SWAP3 POP SWAP3 JUMP JUMPDEST PUSH1 0x0 DUP2 MLOAD SWAP1 POP SWAP2 SWAP1 POP JUMP JUMPDEST PUSH1 0x0 DUP3 DUP3 MSTORE PUSH1 0x20 DUP3 ADD SWAP1 POP SWAP3 SWAP2 POP POP JUMP JUMPDEST PUSH1 0x0 DUP2 SWAP1 POP PUSH1 0x20 DUP3 ADD SWAP1 POP SWAP2 SWAP1 POP JUMP JUMPDEST PUSH2 0x1F31 DUP2 PUSH2 0x188A JUMP JUMPDEST DUP3 MSTORE POP POP JUMP JUMPDEST PUSH1 0x0 DUP3 DUP3 MSTORE PUSH1 0x20 DUP3 ADD SWAP1 POP SWAP3 SWAP2 POP POP JUMP JUMPDEST PUSH1 0x0 PUSH2 0x1F53 DUP3 PUSH2 0x1BC4 JUMP JUMPDEST PUSH2 0x1F5D DUP2 DUP6 PUSH2 0x1F37 JUMP JUMPDEST SWAP4 POP PUSH2 0x1F6D DUP2 DUP6 PUSH1 0x20 DUP7 ADD PUSH2 0x1BE0 JUMP JUMPDEST PUSH2 0x1F76 DUP2 PUSH2 0x1991 JUMP JUMPDEST DUP5 ADD SWAP2 POP POP SWAP3 SWAP2 POP POP JUMP JUMPDEST PUSH2 0x1F8A DUP2 PUSH2 0x1ACD JUMP JUMPDEST DUP3 MSTORE POP POP JUMP JUMPDEST PUSH2 0x1F99 DUP2 PUSH2 0x1C43 JUMP JUMPDEST DUP3 MSTORE POP POP JUMP JUMPDEST PUSH1 0x0 PUSH2 0x140 DUP4 ADD PUSH1 0x0 DUP4 ADD MLOAD PUSH2 0x1FB8 PUSH1 0x0 DUP7 ADD DUP3 PUSH2 0x1F28 JUMP JUMPDEST POP PUSH1 0x20 DUP4 ADD MLOAD DUP5 DUP3 SUB PUSH1 0x20 DUP7 ADD MSTORE PUSH2 0x1FD0 DUP3 DUP3 PUSH2 0x1F48 JUMP JUMPDEST SWAP2 POP POP PUSH1 0x40 DUP4 ADD MLOAD PUSH2 0x1FE5 PUSH1 0x40 DUP7 ADD DUP3 PUSH2 0x1F28 JUMP JUMPDEST POP PUSH1 0x60 DUP4 ADD MLOAD PUSH2 0x1FF8 PUSH1 0x60 DUP7 ADD DUP3 PUSH2 0x1F28 JUMP JUMPDEST POP PUSH1 0x80 DUP4 ADD MLOAD PUSH2 0x200B PUSH1 0x80 DUP7 ADD DUP3 PUSH2 0x1F28 JUMP JUMPDEST POP PUSH1 0xA0 DUP4 ADD MLOAD PUSH2 0x201E PUSH1 0xA0 DUP7 ADD DUP3 PUSH2 0x1F81 JUMP JUMPDEST POP PUSH1 0xC0 DUP4 ADD MLOAD PUSH2 0x2031 PUSH1 0xC0 DUP7 ADD DUP3 PUSH2 0x1F28 JUMP JUMPDEST POP PUSH1 0xE0 DUP4 ADD MLOAD PUSH2 0x2044 PUSH1 0xE0 DUP7 ADD DUP3 PUSH2 0x1F28 JUMP JUMPDEST POP PUSH2 0x100 DUP4 ADD MLOAD PUSH2 0x2059 PUSH2 0x100 DUP7 ADD DUP3 PUSH2 0x1F90 JUMP JUMPDEST POP PUSH2 0x120 DUP4 ADD MLOAD PUSH2 0x206E PUSH2 0x120 DUP7 ADD DUP3 PUSH2 0x1F90 JUMP JUMPDEST POP DUP1 SWAP2 POP POP SWAP3 SWAP2 POP POP JUMP JUMPDEST PUSH1 0x0 PUSH2 0x2085 DUP4 DUP4 PUSH2 0x1F9F JUMP JUMPDEST SWAP1 POP SWAP3 SWAP2 POP POP JUMP JUMPDEST PUSH1 0x0 PUSH1 0x20 DUP3 ADD SWAP1 POP SWAP2 SWAP1 POP JUMP JUMPDEST PUSH1 0x0 PUSH2 0x20A5 DUP3 PUSH2 0x1EFC JUMP JUMPDEST PUSH2 0x20AF DUP2 DUP6 PUSH2 0x1F07 JUMP JUMPDEST SWAP4 POP DUP4 PUSH1 0x20 DUP3 MUL DUP6 ADD PUSH2 0x20C1 DUP6 PUSH2 0x1F18 JUMP JUMPDEST DUP1 PUSH1 0x0 JUMPDEST DUP6 DUP2 LT ISZERO PUSH2 0x20FD JUMPI DUP5 DUP5 SUB DUP10 MSTORE DUP2 MLOAD PUSH2 0x20DE DUP6 DUP3 PUSH2 0x2079 JUMP JUMPDEST SWAP5 POP PUSH2 0x20E9 DUP4 PUSH2 0x208D JUMP JUMPDEST SWAP3 POP PUSH1 0x20 DUP11 ADD SWAP10 POP POP PUSH1 0x1 DUP2 ADD SWAP1 POP PUSH2 0x20C5 JUMP JUMPDEST POP DUP3 SWAP8 POP DUP8 SWAP6 POP POP POP POP POP POP SWAP3 SWAP2 POP POP JUMP JUMPDEST PUSH1 0x0 PUSH1 0x20 DUP3 ADD SWAP1 POP DUP2 DUP2 SUB PUSH1 0x0 DUP4 ADD MSTORE PUSH2 0x2129 DUP2 DUP5 PUSH2 0x209A JUMP JUMPDEST SWAP1 POP SWAP3 SWAP2 POP POP JUMP JUMPDEST PUSH2 0x213A DUP2 PUSH2 0x1C43 JUMP JUMPDEST DUP2 EQ PUSH2 0x2145 JUMPI PUSH1 0x0 DUP1 REVERT JUMPDEST POP JUMP JUMPDEST PUSH1 0x0 DUP2 CALLDATALOAD SWAP1 POP PUSH2 0x2157 DUP2 PUSH2 0x2131 JUMP JUMPDEST SWAP3 SWAP2 POP POP JUMP JUMPDEST PUSH1 0x0 DUP1 PUSH1 0x0 PUSH1 0x60 DUP5 DUP7 SUB SLT ISZERO PUSH2 0x2176 JUMPI PUSH2 0x2175 PUSH2 0x1880 JUMP JUMPDEST JUMPDEST PUSH1 0x0 PUSH2 0x2184 DUP7 DUP3 DUP8 ADD PUSH2 0x18AB JUMP JUMPDEST SWAP4 POP POP PUSH1 0x20 PUSH2 0x2195 DUP7 DUP3 DUP8 ADD PUSH2 0x2148 JUMP JUMPDEST SWAP3 POP POP PUSH1 0x40 PUSH2 0x21A6 DUP7 DUP3 DUP8 ADD PUSH2 0x18AB JUMP JUMPDEST SWAP2 POP POP SWAP3 POP SWAP3 POP SWAP3 JUMP JUMPDEST PUSH1 0x0 PUSH2 0x21BB DUP3 PUSH2 0x1939 JUMP JUMPDEST SWAP1 POP SWAP2 SWAP1 POP JUMP JUMPDEST PUSH2 0x21CB DUP2 PUSH2 0x21B0 JUMP JUMPDEST DUP3 MSTORE POP POP JUMP JUMPDEST PUSH1 0x0 PUSH1 0x20 DUP3 ADD SWAP1 POP PUSH2 0x21E6 PUSH1 0x0 DUP4 ADD DUP5 PUSH2 0x21C2 JUMP JUMPDEST SWAP3 SWAP2 POP POP JUMP JUMPDEST PUSH32 0x4D61726B6574206E6F74207265736F6C76656420796574000000000000000000 PUSH1 0x0 DUP3 ADD MSTORE POP JUMP JUMPDEST PUSH1 0x0 PUSH2 0x2222 PUSH1 0x17 DUP4 PUSH2 0x1BCF JUMP JUMPDEST SWAP2 POP PUSH2 0x222D DUP3 PUSH2 0x21EC JUMP JUMPDEST PUSH1 0x20 DUP3 ADD SWAP1 POP SWAP2 SWAP1 POP JUMP JUMPDEST PUSH1 0x0 PUSH1 0x20 DUP3 ADD SWAP1 POP DUP2 DUP2 SUB PUSH1 0x0 DUP4 ADD MSTORE PUSH2 0x2251 DUP2 PUSH2 0x2215 JUMP JUMPDEST SWAP1 POP SWAP2 SWAP1 POP JUMP JUMPDEST PUSH32 0x4E487B7100000000000000000000000000000000000000000000000000000000 PUSH1 0x0 MSTORE PUSH1 0x11 PUSH1 0x4 MSTORE PUSH1 0x24 PUSH1 0x0 REVERT JUMPDEST PUSH1 0x0 PUSH2 0x2292 DUP3 PUSH2 0x188A JUMP JUMPDEST SWAP2 POP PUSH2 0x229D DUP4 PUSH2 0x188A JUMP JUMPDEST SWAP3 POP DUP3 DUP3 ADD SWAP1 POP DUP1 DUP3 GT ISZERO PUSH2 0x22B5 JUMPI PUSH2 0x22B4 PUSH2 0x2258 JUMP JUMPDEST JUMPDEST SWAP3 SWAP2 POP POP JUMP JUMPDEST PUSH1 0x0 PUSH2 0x22C6 DUP3 PUSH2 0x188A JUMP JUMPDEST SWAP2 POP PUSH2 0x22D1 DUP4 PUSH2 0x188A JUMP JUMPDEST SWAP3 POP DUP3 DUP3 MUL PUSH2 0x22DF DUP2 PUSH2 0x188A JUMP JUMPDEST SWAP2 POP DUP3 DUP3 DIV DUP5 EQ DUP4 ISZERO OR PUSH2 0x22F6 JUMPI PUSH2 0x22F5 PUSH2 0x2258 JUMP JUMPDEST JUMPDEST POP SWAP3 SWAP2 POP POP JUMP JUMPDEST PUSH32 0x4E487B7100000000000000000000000000000000000000000000000000000000 PUSH1 0x0 MSTORE PUSH1 0x12 PUSH1 0x4 MSTORE PUSH1 0x24 PUSH1 0x0 REVERT JUMPDEST PUSH1 0x0 PUSH2 0x2337 DUP3 PUSH2 0x188A JUMP JUMPDEST SWAP2 POP PUSH2 0x2342 DUP4 PUSH2 0x188A JUMP JUMPDEST SWAP3 POP DUP3 PUSH2 0x2352 JUMPI PUSH2 0x2351 PUSH2 0x22FD JUMP JUMPDEST JUMPDEST DUP3 DUP3 DIV SWAP1 POP SWAP3 SWAP2 POP POP JUMP JUMPDEST PUSH32 0x4E6F207265776172647320746F20636C61696D00000000000000000000000000 PUSH1 0x0 DUP3 ADD MSTORE POP JUMP JUMPDEST PUSH1 0x0 PUSH2 0x2393 PUSH1 0x13 DUP4 PUSH2 0x1BCF JUMP JUMPDEST SWAP2 POP PUSH2 0x239E DUP3 PUSH2 0x235D JUMP JUMPDEST PUSH1 0x20 DUP3 ADD SWAP1 POP SWAP2 SWAP1 POP JUMP JUMPDEST PUSH1 0x0 PUSH1 0x20 DUP3 ADD SWAP1 POP DUP2 DUP2 SUB PUSH1 0x0 DUP4 ADD MSTORE PUSH2 0x23C2 DUP2 PUSH2 0x2386 JUMP JUMPDEST SWAP1 POP SWAP2 SWAP1 POP JUMP JUMPDEST PUSH32 0x42657474696E6720646561646C696E65206D75737420626520696E2074686520 PUSH1 0x0 DUP3 ADD MSTORE PUSH32 0x6675747572650000000000000000000000000000000000000000000000000000 PUSH1 0x20 DUP3 ADD MSTORE POP JUMP JUMPDEST PUSH1 0x0 PUSH2 0x2425 PUSH1 0x26 DUP4 PUSH2 0x1BCF JUMP JUMPDEST SWAP2 POP PUSH2 0x2430 DUP3 PUSH2 0x23C9 JUMP JUMPDEST PUSH1 0x40 DUP3 ADD SWAP1 POP SWAP2 SWAP1 POP JUMP JUMPDEST PUSH1 0x0 PUSH1 0x20 DUP3 ADD SWAP1 POP DUP2 DUP2 SUB PUSH1 0x0 DUP4 ADD MSTORE PUSH2 0x2454 DUP2 PUSH2 0x2418 JUMP JUMPDEST SWAP1 POP SWAP2 SWAP1 POP JUMP JUMPDEST PUSH32 0x5265736F6C7574696F6E2074696D65206D757374206265206166746572206265 PUSH1 0x0 DUP3 ADD MSTORE PUSH32 0x7474696E6720646561646C696E65000000000000000000000000000000000000 PUSH1 0x20 DUP3 ADD MSTORE POP JUMP JUMPDEST PUSH1 0x0 PUSH2 0x24B7 PUSH1 0x2E DUP4 PUSH2 0x1BCF JUMP JUMPDEST SWAP2 POP PUSH2 0x24C2 DUP3 PUSH2 0x245B JUMP JUMPDEST PUSH1 0x40 DUP3 ADD SWAP1 POP SWAP2 SWAP1 POP JUMP JUMPDEST PUSH1 0x0 PUSH1 0x20 DUP3 ADD SWAP1 POP DUP2 DUP2 SUB PUSH1 0x0 DUP4 ADD MSTORE PUSH2 0x24E6 DUP2 PUSH2 0x24AA JUMP JUMPDEST SWAP1 POP SWAP2 SWAP1 POP JUMP JUMPDEST PUSH32 0x546172676574207072696365206D757374206265206772656174657220746861 PUSH1 0x0 DUP3 ADD MSTORE PUSH32 0x6E20300000000000000000000000000000000000000000000000000000000000 PUSH1 0x20 DUP3 ADD MSTORE POP JUMP JUMPDEST PUSH1 0x0 PUSH2 0x2549 PUSH1 0x23 DUP4 PUSH2 0x1BCF JUMP JUMPDEST SWAP2 POP PUSH2 0x2554 DUP3 PUSH2 0x24ED JUMP JUMPDEST PUSH1 0x40 DUP3 ADD SWAP1 POP SWAP2 SWAP1 POP JUMP JUMPDEST PUSH1 0x0 PUSH1 0x20 DUP3 ADD SWAP1 POP DUP2 DUP2 SUB PUSH1 0x0 DUP4 ADD MSTORE PUSH2 0x2578 DUP2 PUSH2 0x253C JUMP JUMPDEST SWAP1 POP SWAP2 SWAP1 POP JUMP JUMPDEST PUSH1 0x0 PUSH2 0x258A DUP3 PUSH2 0x188A JUMP JUMPDEST SWAP2 POP PUSH32 0xFFFFFFFFFFFFFFFFFFFFFFFFFFFFFFFFFFFFFFFFFFFFFFFFFFFFFFFFFFFFFFFF DUP3 SUB PUSH2 0x25BC JUMPI PUSH2 0x25BB PUSH2 0x2258 JUMP JUMPDEST JUMPDEST PUSH1 0x1 DUP3 ADD SWAP1 POP SWAP2 SWAP1 POP JUMP JUMPDEST PUSH32 0x4E487B7100000000000000000000000000000000000000000000000000000000 PUSH1 0x0 MSTORE PUSH1 0x22 PUSH1 0x4 MSTORE PUSH1 0x24 PUSH1 0x0 REVERT JUMPDEST PUSH1 0x0 PUSH1 0x2 DUP3 DIV SWAP1 POP PUSH1 0x1 DUP3 AND DUP1 PUSH2 0x260E JUMPI PUSH1 0x7F DUP3 AND SWAP2 POP JUMPDEST PUSH1 0x20 DUP3 LT DUP2 SUB PUSH2 0x2621 JUMPI PUSH2 0x2620 PUSH2 0x25C7 JUMP JUMPDEST JUMPDEST POP SWAP2 SWAP1 POP JUMP JUMPDEST PUSH1 0x0 DUP2 SWAP1 POP DUP2 PUSH1 0x0 MSTORE PUSH1 0x20 PUSH1 0x0 KECCAK256 SWAP1 POP SWAP2 SWAP1 POP JUMP JUMPDEST PUSH1 0x0 PUSH1 0x20 PUSH1 0x1F DUP4 ADD DIV SWAP1 POP SWAP2 SWAP1 POP JUMP JUMPDEST PUSH1 0x0 DUP3 DUP3 SHL SWAP1 POP SWAP3 SWAP2 POP POP JUMP JUMPDEST PUSH1 0x0 PUSH1 0x8 DUP4 MUL PUSH2 0x2689 PUSH32 0xFFFFFFFFFFFFFFFFFFFFFFFFFFFFFFFFFFFFFFFFFFFFFFFFFFFFFFFFFFFFFFFF DUP3 PUSH2 0x264C JUMP JUMPDEST PUSH2 0x2693 DUP7 DUP4 PUSH2 0x264C JUMP JUMPDEST SWAP6 POP DUP1 NOT DUP5 AND SWAP4 POP DUP1 DUP7 AND DUP5 OR SWAP3 POP POP POP SWAP4 SWAP3 POP POP POP JUMP JUMPDEST PUSH1 0x0 PUSH2 0x26C6 PUSH2 0x26C1 PUSH2 0x26BC DUP5 PUSH2 0x188A JUMP JUMPDEST PUSH2 0x190D JUMP JUMPDEST PUSH2 0x188A JUMP JUMPDEST SWAP1 POP SWAP2 SWAP1 POP JUMP JUMPDEST PUSH1 0x0 DUP2 SWAP1 POP SWAP2 SWAP1 POP JUMP JUMPDEST PUSH2 0x26E0 DUP4 PUSH2 0x26AB JUMP JUMPDEST PUSH2 0x26F4 PUSH2 0x26EC DUP3 PUSH2 0x26CD JUMP JUMPDEST DUP5 DUP5 SLOAD PUSH2 0x2659 JUMP JUMPDEST DUP3 SSTORE POP POP POP POP JUMP JUMPDEST PUSH1 0x0 SWAP1 JUMP JUMPDEST PUSH2 0x2709 PUSH2 0x26FC JUMP JUMPDEST PUSH2 0x2714 DUP2 DUP5 DUP5 PUSH2 0x26D7 JUMP JUMPDEST POP POP POP JUMP JUMPDEST JUMPDEST DUP2 DUP2 LT ISZERO PUSH2 0x2738 JUMPI PUSH2 0x272D PUSH1 0x0 DUP3 PUSH2 0x2701 JUMP JUMPDEST PUSH1 0x1 DUP2 ADD SWAP1 POP PUSH2 0x271A JUMP JUMPDEST POP POP JUMP JUMPDEST PUSH1 0x1F DUP3 GT ISZERO PUSH2 0x277D JUMPI PUSH2 0x274E DUP2 PUSH2 0x2627 JUMP JUMPDEST PUSH2 0x2757 DUP5 PUSH2 0x263C JUMP JUMPDEST DUP2 ADD PUSH1 0x20 DUP6 LT ISZERO PUSH2 0x2766 JUMPI DUP2 SWAP1 POP JUMPDEST PUSH2 0x277A PUSH2 0x2772 DUP6 PUSH2 0x263C JUMP JUMPDEST DUP4 ADD DUP3 PUSH2 0x2719 JUMP JUMPDEST POP POP JUMPDEST POP POP POP JUMP JUMPDEST PUSH1 0x0 DUP3 DUP3 SHR SWAP1 POP SWAP3 SWAP2 POP POP JUMP JUMPDEST PUSH1 0x0 PUSH2 0x27A0 PUSH1 0x0 NOT DUP5 PUSH1 0x8 MUL PUSH2 0x2782 JUMP JUMPDEST NOT DUP1 DUP4 AND SWAP2 POP POP SWAP3 SWAP2 POP POP JUMP JUMPDEST PUSH1 0x0 PUSH2 0x27B9 DUP4 DUP4 PUSH2 0x278F JUMP JUMPDEST SWAP2 POP DUP3 PUSH1 0x2 MUL DUP3 OR SWAP1 POP SWAP3 SWAP2 POP POP JUMP JUMPDEST PUSH2 0x27D2 DUP3 PUSH2 0x1BC4 JUMP JUMPDEST PUSH8 0xFFFFFFFFFFFFFFFF DUP2 GT ISZERO PUSH2 0x27EB JUMPI PUSH2 0x27EA PUSH2 0x19A2 JUMP JUMPDEST JUMPDEST PUSH2 0x27F5 DUP3 SLOAD PUSH2 0x25F6 JUMP JUMPDEST PUSH2 0x2800 DUP3 DUP3 DUP6 PUSH2 0x273C JUMP JUMPDEST PUSH1 0x0 PUSH1 0x20 SWAP1 POP PUSH1 0x1F DUP4 GT PUSH1 0x1 DUP2 EQ PUSH2 0x2833 JUMPI PUSH1 0x0 DUP5 ISZERO PUSH2 0x2821 JUMPI DUP3 DUP8 ADD MLOAD SWAP1 POP JUMPDEST PUSH2 0x282B DUP6 DUP3 PUSH2 0x27AD JUMP JUMPDEST DUP7 SSTORE POP PUSH2 0x2893 JUMP JUMPDEST PUSH1 0x1F NOT DUP5 AND PUSH2 0x2841 DUP7 PUSH2 0x2627 JUMP JUMPDEST PUSH1 0x0 JUMPDEST DUP3 DUP2 LT ISZERO PUSH2 0x2869 JUMPI DUP5 DUP10 ADD MLOAD DUP3 SSTORE PUSH1 0x1 DUP3 ADD SWAP2 POP PUSH1 0x20 DUP6 ADD SWAP5 POP PUSH1 0x20 DUP2 ADD SWAP1 POP PUSH2 0x2844 JUMP JUMPDEST DUP7 DUP4 LT ISZERO PUSH2 0x2886 JUMPI DUP5 DUP10 ADD MLOAD PUSH2 0x2882 PUSH1 0x1F DUP10 AND DUP3 PUSH2 0x278F JUMP JUMPDEST DUP4 SSTORE POP JUMPDEST PUSH1 0x1 PUSH1 0x2 DUP9 MUL ADD DUP9 SSTORE POP POP POP JUMPDEST POP POP POP POP POP POP JUMP JUMPDEST PUSH1 0x0 PUSH1 0x80 DUP3 ADD SWAP1 POP DUP2 DUP2 SUB PUSH1 0x0 DUP4 ADD MSTORE PUSH2 0x28B5 DUP2 DUP8 PUSH2 0x1C0A JUMP JUMPDEST SWAP1 POP PUSH2 0x28C4 PUSH1 0x20 DUP4 ADD DUP7 PUSH2 0x1B9A JUMP JUMPDEST PUSH2 0x28D1 PUSH1 0x40 DUP4 ADD DUP6 PUSH2 0x1B9A JUMP JUMPDEST PUSH2 0x28DE PUSH1 0x60 DUP4 ADD DUP5 PUSH2 0x1B9A JUMP JUMPDEST SWAP6 SWAP5 POP POP POP POP POP JUMP JUMPDEST PUSH32 0x546F6F206561726C7920746F207265736F6C7665000000000000000000000000 PUSH1 0x0 DUP3 ADD MSTORE POP JUMP JUMPDEST PUSH1 0x0 PUSH2 0x291D PUSH1 0x14 DUP4 PUSH2 0x1BCF JUMP JUMPDEST SWAP2 POP PUSH2 0x2928 DUP3 PUSH2 0x28E7 JUMP JUMPDEST PUSH1 0x20 DUP3 ADD SWAP1 POP SWAP2 SWAP1 POP JUMP JUMPDEST PUSH1 0x0 PUSH1 0x20 DUP3 ADD SWAP1 POP DUP2 DUP2 SUB PUSH1 0x0 DUP4 ADD MSTORE PUSH2 0x294C DUP2 PUSH2 0x2910 JUMP JUMPDEST SWAP1 POP SWAP2 SWAP1 POP JUMP JUMPDEST PUSH32 0x4D61726B657420616C7265616479207265736F6C766564000000000000000000 PUSH1 0x0 DUP3 ADD MSTORE POP JUMP JUMPDEST PUSH1 0x0 PUSH2 0x2989 PUSH1 0x17 DUP4 PUSH2 0x1BCF JUMP JUMPDEST SWAP2 POP PUSH2 0x2994 DUP3 PUSH2 0x2953 JUMP JUMPDEST PUSH1 0x20 DUP3 ADD SWAP1 POP SWAP2 SWAP1 POP JUMP JUMPDEST PUSH1 0x0 PUSH1 0x20 DUP3 ADD SWAP1 POP DUP2 DUP2 SUB PUSH1 0x0 DUP4 ADD MSTORE PUSH2 0x29B8 DUP2 PUSH2 0x297C JUMP JUMPDEST SWAP1 POP SWAP2 SWAP1 POP JUMP JUMPDEST PUSH1 0x0 DUP3 DUP3 MSTORE PUSH1 0x20 DUP3 ADD SWAP1 POP SWAP3 SWAP2 POP POP JUMP JUMPDEST PUSH1 0x0 DUP2 SWAP1 POP SWAP2 SWAP1 POP JUMP JUMPDEST PUSH1 0x0 DUP3 DUP3 MSTORE PUSH1 0x20 DUP3 ADD SWAP1 POP SWAP3 SWAP2 POP POP JUMP JUMPDEST PUSH1 0x0 PUSH2 0x29F7 DUP4 DUP6 PUSH2 0x29DA JUMP JUMPDEST SWAP4 POP PUSH2 0x2A04 DUP4 DUP6 DUP5 PUSH2 0x1A4E JUMP JUMPDEST PUSH2 0x2A0D DUP4 PUSH2 0x1991 JUMP JUMPDEST DUP5 ADD SWAP1 POP SWAP4 SWAP3 POP POP POP JUMP JUMPDEST PUSH1 0x0 PUSH2 0x2A25 DUP5 DUP5 DUP5 PUSH2 0x29EB JUMP JUMPDEST SWAP1 POP SWAP4 SWAP3 POP POP POP JUMP JUMPDEST PUSH1 0x0 DUP1 REVERT JUMPDEST PUSH1 0x0 DUP1 REVERT JUMPDEST PUSH1 0x0 DUP1 REVERT JUMPDEST PUSH1 0x0 DUP1 DUP4 CALLDATALOAD PUSH1 0x1 PUSH1 0x20 SUB DUP5 CALLDATASIZE SUB SUB DUP2 SLT PUSH2 0x2A5A JUMPI PUSH2 0x2A59 PUSH2 0x2A38 JUMP JUMPDEST JUMPDEST DUP4 DUP2 ADD SWAP3 POP DUP3 CALLDATALOAD SWAP2 POP PUSH1 0x20 DUP4 ADD SWAP3 POP PUSH8 0xFFFFFFFFFFFFFFFF DUP3 GT ISZERO PUSH2 0x2A82 JUMPI PUSH2 0x2A81 PUSH2 0x2A2E JUMP JUMPDEST JUMPDEST PUSH1 0x1 DUP3 MUL CALLDATASIZE SUB DUP4 SGT ISZERO PUSH2 0x2A98 JUMPI PUSH2 0x2A97 PUSH2 0x2A33 JUMP JUMPDEST JUMPDEST POP SWAP3 POP SWAP3 SWAP1 POP JUMP JUMPDEST PUSH1 0x0 PUSH1 0x20 DUP3 ADD SWAP1 POP SWAP2 SWAP1 POP JUMP JUMPDEST PUSH1 0x0 PUSH2 0x2AB9 DUP4 DUP6 PUSH2 0x29BF JUMP JUMPDEST SWAP4 POP DUP4 PUSH1 0x20 DUP5 MUL DUP6 ADD PUSH2 0x2ACB DUP5 PUSH2 0x29D0 JUMP JUMPDEST DUP1 PUSH1 0x0 JUMPDEST DUP8 DUP2 LT ISZERO PUSH2 0x2B11 JUMPI DUP5 DUP5 SUB DUP10 MSTORE PUSH2 0x2AE6 DUP3 DUP5 PUSH2 0x2A3D JUMP JUMPDEST PUSH2 0x2AF1 DUP7 DUP3 DUP5 PUSH2 0x2A18 JUMP JUMPDEST SWAP6 POP PUSH2 0x2AFC DUP5 PUSH2 0x2AA0 JUMP JUMPDEST SWAP4 POP PUSH1 0x20 DUP12 ADD SWAP11 POP POP POP PUSH1 0x1 DUP2 ADD SWAP1 POP PUSH2 0x2ACF JUMP JUMPDEST POP DUP3 SWAP8 POP DUP8 SWAP5 POP POP POP POP POP SWAP4 SWAP3 POP POP POP JUMP JUMPDEST PUSH1 0x0 PUSH1 0x20 DUP3 ADD SWAP1 POP DUP2 DUP2 SUB PUSH1 0x0 DUP4 ADD MSTORE PUSH2 0x2B3E DUP2 DUP5 DUP7 PUSH2 0x2AAD JUMP JUMPDEST SWAP1 POP SWAP4 SWAP3 POP POP POP JUMP JUMPDEST PUSH1 0x0 DUP2 MLOAD SWAP1 POP PUSH2 0x2B56 DUP2 PUSH2 0x1894 JUMP JUMPDEST SWAP3 SWAP2 POP POP JUMP JUMPDEST PUSH1 0x0 PUSH1 0x20 DUP3 DUP5 SUB SLT ISZERO PUSH2 0x2B72 JUMPI PUSH2 0x2B71 PUSH2 0x1880 JUMP JUMPDEST JUMPDEST PUSH1 0x0 PUSH2 0x2B80 DUP5 DUP3 DUP6 ADD PUSH2 0x2B47 JUMP JUMPDEST SWAP2 POP POP SWAP3 SWAP2 POP POP JUMP JUMPDEST PUSH1 0x0 DUP2 SWAP1 POP SWAP2 SWAP1 POP JUMP JUMPDEST PUSH1 0x0 PUSH2 0x2BAE PUSH2 0x2BA9 PUSH2 0x2BA4 DUP5 PUSH2 0x2B89 JUMP JUMPDEST PUSH2 0x190D JUMP JUMPDEST PUSH2 0x188A JUMP JUMPDEST SWAP1 POP SWAP2 SWAP1 POP JUMP JUMPDEST PUSH2 0x2BBE DUP2 PUSH2 0x2B93 JUMP JUMPDEST DUP3 MSTORE POP POP JUMP JUMPDEST PUSH1 0x0 PUSH1 0x40 DUP3 ADD SWAP1 POP PUSH2 0x2BD9 PUSH1 0x0 DUP4 ADD DUP6 PUSH2 0x1D8A JUMP JUMPDEST PUSH2 0x2BE6 PUSH1 0x20 DUP4 ADD DUP5 PUSH2 0x2BB5 JUMP JUMPDEST SWAP4 SWAP3 POP POP POP JUMP JUMPDEST PUSH1 0x0 DUP1 REVERT JUMPDEST PUSH1 0x0 DUP2 PUSH1 0x7 SIGNEXTEND SWAP1 POP SWAP2 SWAP1 POP JUMP JUMPDEST PUSH2 0x2C08 DUP2 PUSH2 0x2BF2 JUMP JUMPDEST DUP2 EQ PUSH2 0x2C13 JUMPI PUSH1 0x0 DUP1 REVERT JUMPDEST POP JUMP JUMPDEST PUSH1 0x0 DUP2 MLOAD SWAP1 POP PUSH2 0x2C25 DUP2 PUSH2 0x2BFF JUMP JUMPDEST SWAP3 SWAP2 POP POP JUMP JUMPDEST PUSH1 0x0 PUSH8 0xFFFFFFFFFFFFFFFF DUP3 AND SWAP1 POP SWAP2 SWAP1 POP JUMP JUMPDEST PUSH2 0x2C48 DUP2 PUSH2 0x2C2B JUMP JUMPDEST DUP2 EQ PUSH2 0x2C53 JUMPI PUSH1 0x0 DUP1 REVERT JUMPDEST POP JUMP JUMPDEST PUSH1 0x0 DUP2 MLOAD SWAP1 POP PUSH2 0x2C65 DUP2 PUSH2 0x2C3F JUMP JUMPDEST SWAP3 SWAP2 POP POP JUMP JUMPDEST PUSH1 0x0 DUP2 PUSH1 0x3 SIGNEXTEND SWAP1 POP SWAP2 SWAP1 POP JUMP JUMPDEST PUSH2 0x2C81 DUP2 PUSH2 0x2C6B JUMP JUMPDEST DUP2 EQ PUSH2 0x2C8C JUMPI PUSH1 0x0 DUP1 REVERT JUMPDEST POP JUMP JUMPDEST PUSH1 0x0 DUP2 MLOAD SWAP1 POP PUSH2 0x2C9E DUP2 PUSH2 0x2C78 JUMP JUMPDEST SWAP3 SWAP2 POP POP JUMP JUMPDEST PUSH1 0x0 PUSH1 0x80 DUP3 DUP5 SUB SLT ISZERO PUSH2 0x2CBA JUMPI PUSH2 0x2CB9 PUSH2 0x2BED JUMP JUMPDEST JUMPDEST PUSH2 0x2CC4 PUSH1 0x80 PUSH2 0x1A02 JUMP JUMPDEST SWAP1 POP PUSH1 0x0 PUSH2 0x2CD4 DUP5 DUP3 DUP6 ADD PUSH2 0x2C16 JUMP JUMPDEST PUSH1 0x0 DUP4 ADD MSTORE POP PUSH1 0x20 PUSH2 0x2CE8 DUP5 DUP3 DUP6 ADD PUSH2 0x2C56 JUMP JUMPDEST PUSH1 0x20 DUP4 ADD MSTORE POP PUSH1 0x40 PUSH2 0x2CFC DUP5 DUP3 DUP6 ADD PUSH2 0x2C8F JUMP JUMPDEST PUSH1 0x40 DUP4 ADD MSTORE POP PUSH1 0x60 PUSH2 0x2D10 DUP5 DUP3 DUP6 ADD PUSH2 0x2B47 JUMP JUMPDEST PUSH1 0x60 DUP4 ADD MSTORE POP SWAP3 SWAP2 POP POP JUMP JUMPDEST PUSH1 0x0 PUSH1 0x80 DUP3 DUP5 SUB SLT ISZERO PUSH2 0x2D32 JUMPI PUSH2 0x2D31 PUSH2 0x1880 JUMP JUMPDEST JUMPDEST PUSH1 0x0 PUSH2 0x2D40 DUP5 DUP3 DUP6 ADD PUSH2 0x2CA4 JUMP JUMPDEST SWAP2 POP POP SWAP3 SWAP2 POP POP JUMP JUMPDEST PUSH1 0x0 PUSH2 0x2D54 DUP3 PUSH2 0x2C6B JUMP JUMPDEST SWAP2 POP PUSH2 0x2D5F DUP4 PUSH2 0x2C6B JUMP JUMPDEST SWAP3 POP DUP3 DUP3 MUL PUSH2 0x2D6D DUP2 PUSH2 0x2C6B JUMP JUMPDEST SWAP2 POP DUP1 DUP3 EQ PUSH2 0x2D7F JUMPI PUSH2 0x2D7E PUSH2 0x2258 JUMP JUMPDEST JUMPDEST POP SWAP3 SWAP2 POP POP JUMP JUMPDEST PUSH1 0x0 DUP2 PUSH1 0x1 SHR SWAP1 POP SWAP2 SWAP1 POP JUMP JUMPDEST PUSH1 0x0 DUP1 DUP3 SWAP2 POP DUP4 SWAP1 POP JUMPDEST PUSH1 0x1 DUP6 GT ISZERO PUSH2 0x2DDD JUMPI DUP1 DUP7 DIV DUP2 GT ISZERO PUSH2 0x2DB9 JUMPI PUSH2 0x2DB8 PUSH2 0x2258 JUMP JUMPDEST JUMPDEST PUSH1 0x1 DUP6 AND ISZERO PUSH2 0x2DC8 JUMPI DUP1 DUP3 MUL SWAP2 POP JUMPDEST DUP1 DUP2 MUL SWAP1 POP PUSH2 0x2DD6 DUP6 PUSH2 0x2D86 JUMP JUMPDEST SWAP5 POP PUSH2 0x2D9D JUMP JUMPDEST SWAP5 POP SWAP5 SWAP3 POP POP POP JUMP JUMPDEST PUSH1 0x0 DUP3 PUSH2 0x2DF6 JUMPI PUSH1 0x1 SWAP1 POP PUSH2 0x2EB2 JUMP JUMPDEST DUP2 PUSH2 0x2E04 JUMPI PUSH1 0x0 SWAP1 POP PUSH2 0x2EB2 JUMP JUMPDEST DUP2 PUSH1 0x1 DUP2 EQ PUSH2 0x2E1A JUMPI PUSH1 0x2 DUP2 EQ PUSH2 0x2E24 JUMPI PUSH2 0x2E53 JUMP JUMPDEST PUSH1 0x1 SWAP2 POP POP PUSH2 0x2EB2 JUMP JUMPDEST PUSH1 0xFF DUP5 GT ISZERO PUSH2 0x2E36 JUMPI PUSH2 0x2E35 PUSH2 0x2258 JUMP JUMPDEST JUMPDEST DUP4 PUSH1 0x2 EXP SWAP2 POP DUP5 DUP3 GT ISZERO PUSH2 0x2E4D JUMPI PUSH2 0x2E4C PUSH2 0x2258 JUMP JUMPDEST JUMPDEST POP PUSH2 0x2EB2 JUMP JUMPDEST POP PUSH1 0x20 DUP4 LT PUSH2 0x133 DUP4 LT AND PUSH1 0x4E DUP5 LT PUSH1 0xB DUP5 LT AND OR ISZERO PUSH2 0x2E88 JUMPI DUP3 DUP3 EXP SWAP1 POP DUP4 DUP2 GT ISZERO PUSH2 0x2E83 JUMPI PUSH2 0x2E82 PUSH2 0x2258 JUMP JUMPDEST JUMPDEST PUSH2 0x2EB2 JUMP JUMPDEST PUSH2 0x2E95 DUP5 DUP5 DUP5 PUSH1 0x1 PUSH2 0x2D93 JUMP JUMPDEST SWAP3 POP SWAP1 POP DUP2 DUP5 DIV DUP2 GT ISZERO PUSH2 0x2EAC JUMPI PUSH2 0x2EAB PUSH2 0x2258 JUMP JUMPDEST JUMPDEST DUP2 DUP2 MUL SWAP1 POP JUMPDEST SWAP4 SWAP3 POP POP POP JUMP JUMPDEST PUSH1 0x0 PUSH1 0xFF DUP3 AND SWAP1 POP SWAP2 SWAP1 POP JUMP JUMPDEST PUSH1 0x0 PUSH2 0x2ED1 DUP3 PUSH2 0x188A JUMP JUMPDEST SWAP2 POP PUSH2 0x2EDC DUP4 PUSH2 0x2EB9 JUMP JUMPDEST SWAP3 POP PUSH2 0x2F09 PUSH32 0xFFFFFFFFFFFFFFFFFFFFFFFFFFFFFFFFFFFFFFFFFFFFFFFFFFFFFFFFFFFFFFFF DUP5 DUP5 PUSH2 0x2DE6 JUMP JUMPDEST SWAP1 POP SWAP3 SWAP2 POP POP JUMP JUMPDEST PUSH1 0x0 PUSH1 0x40 DUP3 ADD SWAP1 POP PUSH2 0x2F26 PUSH1 0x0 DUP4 ADD DUP6 PUSH2 0x1C4F JUMP JUMPDEST PUSH2 0x2F33 PUSH1 0x20 DUP4 ADD DUP5 PUSH2 0x1B9A JUMP JUMPDEST SWAP4 SWAP3 POP POP POP JUMP JUMPDEST PUSH1 0x0 PUSH2 0x2F45 DUP3 PUSH2 0x188A JUMP JUMPDEST SWAP2 POP PUSH2 0x2F50 DUP4 PUSH2 0x188A JUMP JUMPDEST SWAP3 POP DUP3 DUP3 SUB SWAP1 POP DUP2 DUP2 GT ISZERO PUSH2 0x2F68 JUMPI PUSH2 0x2F67 PUSH2 0x2258 JUMP JUMPDEST JUMPDEST SWAP3 SWAP2 POP POP JUMP JUMPDEST PUSH32 0x4E487B7100000000000000000000000000000000000000000000000000000000 PUSH1 0x0 MSTORE PUSH1 0x32 PUSH1 0x4 MSTORE PUSH1 0x24 PUSH1 0x0 REVERT JUMPDEST PUSH32 0x42657474696E6720706572696F642068617320656E6465640000000000000000 PUSH1 0x0 DUP3 ADD MSTORE POP JUMP JUMPDEST PUSH1 0x0 PUSH2 0x2FD3 PUSH1 0x18 DUP4 PUSH2 0x1BCF JUMP JUMPDEST SWAP2 POP PUSH2 0x2FDE DUP3 PUSH2 0x2F9D JUMP JUMPDEST PUSH1 0x20 DUP3 ADD SWAP1 POP SWAP2 SWAP1 POP JUMP JUMPDEST PUSH1 0x0 PUSH1 0x20 DUP3 ADD SWAP1 POP DUP2 DUP2 SUB PUSH1 0x0 DUP4 ADD MSTORE PUSH2 0x3002 DUP2 PUSH2 0x2FC6 JUMP JUMPDEST SWAP1 POP SWAP2 SWAP1 POP JUMP JUMPDEST PUSH32 0x416D6F756E74206D7573742062652067726561746572207468616E2030000000 PUSH1 0x0 DUP3 ADD MSTORE POP JUMP JUMPDEST PUSH1 0x0 PUSH2 0x303F PUSH1 0x1D DUP4 PUSH2 0x1BCF JUMP JUMPDEST SWAP2 POP PUSH2 0x304A DUP3 PUSH2 0x3009 JUMP JUMPDEST PUSH1 0x20 DUP3 ADD SWAP1 POP SWAP2 SWAP1 POP JUMP JUMPDEST PUSH1 0x0 PUSH1 0x20 DUP3 ADD SWAP1 POP DUP2 DUP2 SUB PUSH1 0x0 DUP4 ADD MSTORE PUSH2 0x306E DUP2 PUSH2 0x3032 JUMP JUMPDEST SWAP1 POP SWAP2 SWAP1 POP JUMP JUMPDEST PUSH32 0x496E73756666696369656E742059657320746F6B656E73000000000000000000 PUSH1 0x0 DUP3 ADD MSTORE POP JUMP JUMPDEST PUSH1 0x0 PUSH2 0x30AB PUSH1 0x17 DUP4 PUSH2 0x1BCF JUMP JUMPDEST SWAP2 POP PUSH2 0x30B6 DUP3 PUSH2 0x3075 JUMP JUMPDEST PUSH1 0x20 DUP3 ADD SWAP1 POP SWAP2 SWAP1 POP JUMP JUMPDEST PUSH1 0x0 PUSH1 0x20 DUP3 ADD SWAP1 POP DUP2 DUP2 SUB PUSH1 0x0 DUP4 ADD MSTORE PUSH2 0x30DA DUP2 PUSH2 0x309E JUMP JUMPDEST SWAP1 POP SWAP2 SWAP1 POP JUMP JUMPDEST PUSH32 0x496E73756666696369656E74204E6F20746F6B656E7300000000000000000000 PUSH1 0x0 DUP3 ADD MSTORE POP JUMP JUMPDEST PUSH1 0x0 PUSH2 0x3117 PUSH1 0x16 DUP4 PUSH2 0x1BCF JUMP JUMPDEST SWAP2 POP PUSH2 0x3122 DUP3 PUSH2 0x30E1 JUMP JUMPDEST PUSH1 0x20 DUP3 ADD SWAP1 POP SWAP2 SWAP1 POP JUMP JUMPDEST PUSH1 0x0 PUSH1 0x20 DUP3 ADD SWAP1 POP DUP2 DUP2 SUB PUSH1 0x0 DUP4 ADD MSTORE PUSH2 0x3146 DUP2 PUSH2 0x310A JUMP JUMPDEST SWAP1 POP SWAP2 SWAP1 POP JUMP JUMPDEST PUSH2 0x3156 DUP2 PUSH2 0x1CE3 JUMP JUMPDEST DUP3 MSTORE POP POP JUMP JUMPDEST PUSH1 0x0 PUSH1 0x40 DUP3 ADD SWAP1 POP PUSH2 0x3171 PUSH1 0x0 DUP4 ADD DUP6 PUSH2 0x314D JUMP JUMPDEST PUSH2 0x317E PUSH1 0x20 DUP4 ADD DUP5 PUSH2 0x1B9A JUMP JUMPDEST SWAP4 SWAP3 POP POP POP JUMP JUMPDEST PUSH1 0x0 PUSH1 0x60 DUP3 ADD SWAP1 POP PUSH2 0x319A PUSH1 0x0 DUP4 ADD DUP7 PUSH2 0x314D JUMP JUMPDEST PUSH2 0x31A7 PUSH1 0x20 DUP4 ADD DUP6 PUSH2 0x314D JUMP JUMPDEST PUSH2 0x31B4 PUSH1 0x40 DUP4 ADD DUP5 PUSH2 0x1B9A JUMP JUMPDEST SWAP5 SWAP4 POP POP POP POP JUMP JUMPDEST PUSH1 0x0 PUSH1 0x20 DUP3 ADD SWAP1 POP PUSH2 0x31D1 PUSH1 0x0 DUP4 ADD DUP5 PUSH2 0x314D JUMP JUMPDEST SWAP3 SWAP2 POP POP JUMP INVALID LOG2 PUSH5 0x6970667358 0x22 SLT KECCAK256 0xAD PUSH16 0xC8292730815D89F98555F1C975CD786C 0xC1 0xC4 PUSH16 0x2062E5D164A1F36DFF16BE64736F6C63 NUMBER STOP ADDMOD XOR STOP CALLER "
        },
        "methodIdentifiers": {
          "FEE_RATE()": "2d11c58a",
          "claimRewards(uint256)": "0962ef79",
          "createMarket(string,uint256,uint256,uint256,bytes32)": "2ae3b49f",
          "getMarketInfo(uint256)": "3ec79193",
          "getUserBet(uint256,address)": "c03fb87c",
          "listAllMarkets()": "d2ca0a58",
          "predictionMarkets(uint256)": "867fbf5f",
          "priceOracle()": "2630c12f",
          "purchaseTokens(uint256,bool,uint256)": "de2bafe1",
          "resolveMarket(uint256,bytes[])": "92a8db3f",
          "sellTokens(uint256,bool,uint256)": "df1da790",
          "token()": "fc0c546a",
          "totalMarkets()": "8162486b",
          "userBets(uint256,address)": "7d06a8e1"
        }
      }
    }
  }
}